:020000040000FA
:1000000098F50020353C0000333D0000353D0000F0
:10001000373D0000393D00003B3D0000000000007E
:100020000000000000000000000000003D3D000056
:100030003F3D000000000000D33F00004D6A00007B
:10004000453D0000453D0000453D0000453D0000A8
:10005000453D0000453D0000453D0000453D000098
:10006000453D0000453D0000453D0000453D000088
:10007000453D0000453D0000453D0000453D000078
:10008000453D0000453D0000453D0000453D000068
:10009000632C0000492D0000453D0000453D000057
:1000A000453D0000453D0000453D0000453D000048
:1000B000453D0000453D0000453D0000453D000038
:1000C000453D0000355800003958000055580000E3
:1000D00065580000755800008558000095580000CC
:1000E000A5580000B5580000C5580000D5580000BC
:1000F000495800004B5800004D5800004F58000070
:100100005158000053580000453D0000453D000097
:10011000453D0000453D0000453D0000453D0000D7
:10012000453D0000453D0000453D0000453D0000C7
:10013000453D0000453D0000453D0000453D0000B7
:10014000453D0000453D0000453D0000453D0000A7
:10015000453D0000453D0000453D0000453D000097
:10016000453D0000453D0000453D0000453D000087
:10017000453D0000453D0000453D0000453D000077
:10018000453D0000453D0000DFF80CD003F0EAFDDE
:1001900000480047059A000098F5002072B67047A5
:1001A00062B67047EFF3108072B6704780F3108824
:1001B000704730BF704720BF7047B0FA80F070477B
:1001C00090FAA0F0B0FA80F0704790FAA0F0704773
:1001D0002DE9F04104460D4617464FF000082E4623
:1001E0002560277100BF00BF08E00021304603F002
:1001F00083FC361D08F1010000F0FF08B8F1200F64
:10020000F3DB2079D0B1012809D002282FD1216851
:1002100001F180004FF0FF3103F03EFC28E021683F
:1002200001F180004FF6FF7103F04EFC216801F1EF
:1002300084004FF6FF7103F047FC19E0216801F1DB
:100240008000FF2103F058FC216801F18400FF21A8
:1002500003F052FC216801F18800FF2103F04CFCFF
:10026000216801F18C00FF2103F046FC00E000BF93
:1002700000BFBDE8F0812DE9F04105460C46164669
:10028000202C07DA2F6807EB84073146384603F045
:1002900003FC00BFBDE8F08170B504460D4620792F
:1002A000B8B1012808D002282ED1216801F1A000A0
:1002B000294603F0F1FB28E0A9B2226802F1A00070
:1002C00003F002FC290C226802F1A40003F0FCFBFD
:1002D0001BE0E9B2226802F1A00003F00DFC2168E6
:1002E00001F1A400C5F3072103F006FC216801F128
:1002F000A800C5F3074103F0FFFB290E226802F1B5
:10030000AC0003F0F9FB00E000BF00BF70BD70B5AA
:10031000044600252079C0B1012808D0022830D138
:10032000216801F1900003F0B9FB05462AE021683D
:1003300001F1900003F0CAFB0543216801F194002C
:1003400003F0C4FB45EA00451CE0216801F1900080
:1003500003F0D4FB0543216801F1940003F0CEFBC8
:1003600045EA0025216801F1980003F0C7FB45EA42
:100370000045216801F19C0003F0C0FB45EA0065DF
:1003800000E000BF00BF284670BD70B504460025E0
:100390002079C0B1012808D0022830D1216801F1AC
:1003A000A00003F07BFB05462AE0216801F1A000D4
:1003B00003F08CFB0543216801F1A40003F086FBE8
:1003C00045EA00451CE0216801F1A00003F07EFB36
:1003D0000543216801F1A40003F078FB45EA0025FC
:1003E000216801F1A80003F071FB45EA004521688E
:1003F00001F1AC0003F06AFB45EA006500E000BFD4
:1004000000BF284670BD2DE9F04105460C46164652
:100410002879002833D0012816D002284AD129682B
:1004200001F1A00003F03AFB07461EB90120A040ED
:10043000874302E00120A0400743296801F1A000A2
:10044000394603F029FB36E02868A030211100EB83
:100450008108404603F03AFB07462EB904F00F012D
:1004600001208840874305E004F00F010120884007
:10047000384387B23946404603F026FB1BE0286824
:10048000A030E11000EB8108404603F037FB07463F
:100490002EB904F0070101208840874305E004F0ED
:1004A0000701012088403843C7B23946404603F06F
:1004B00023FB00E000BF00BFBDE8F0812DE9F04163
:1004C00005460C461746D5F80080BFB1012F02D073
:1004D000022F34D125E0012221462846FFF793FF61
:1004E000286800EB8408404603F008FB064646F007
:1004F00004063146404603F0FFFA21E0002221467F
:100500002846FFF780FF286800EB8408404603F088
:10051000F5FA064646F004063146404603F0ECFA8A
:100520000EE0286800EB8408404603F0E7FA064630
:1005300026F004063146404603F0DEFA00E000BF34
:1005400000BFBDE8F0812DE9F04105460C462F685B
:10055000202C0BDA07EB8407384603F0CFFA064667
:1005600046F008063146384603F0C6FABDE8F08189
:100570002DE9F04105460C462F68202C0BDA07EBDD
:100580008407384603F0BAFA064626F008063146D4
:10059000384603F0B1FABDE8F08170B504460E4666
:1005A000012000FA06F52079B8B1012808D0022808
:1005B0002CD1216801F18000294603F06DFA26E074
:1005C000216801F18000294603F07EFA290C226897
:1005D00002F1840003F078FA19E0216801F180004B
:1005E000294603F089FA290A226802F1840003F0FF
:1005F00083FA290C226802F1880003F07DFA290EA3
:10060000226802F18C0003F077FA00E000BF00BF1F
:1006100070BD2DE9F04704460F4690461D462E4614
:1006200003F032FA81466C21204603F096FA2760E7
:100630004FEA48006060002340220621206803F052
:100640005FFA012340220621206803F059FAC6F31D
:10065000800380220721206803F052FAC6F340038A
:1006600002220121206803F04BFA06F00103012267
:100670000021206803F044FAD4E9002102F10C00C3
:1006800003F03AFAD4E9002102F11C0003F034FA35
:10069000484603F0FDF9BDE8F0872DE9F047044630
:1006A0000E46154698464746102D33DA95B303F0AB
:1006B000EBF981466C21204603F04FFA306820F4B4
:1006C000F07040EA451020607068606000234022AE
:1006D0000621206803F014FA012340220621206835
:1006E00003F00EFAC7F3800380220721206803F08D
:1006F00007FAC7F3400302220121206803F000FA41
:1007000007F0010301220021206803F0F9F94846AF
:1007100003F0BEF9BDE8F0872DE9F84304460D4625
:1007200016461F46DDF8208003F0AEF98146207B97
:1007300008B901202073012084F86A006800A060D5
:1007400000206062A661E7612062012084F8340025
:1007500084F8148094F85400012802D184F86900C8
:1007600005E0012320220521206803F0C9F994F84F
:100770006800012805D1002308220321206803F026
:10078000BFF92168081D03F0B9F900909DF8000039
:100790000090204602F084F8484603F079F9BDE85D
:1007A000F8832DE9F84304460D4616461F46DDF84A
:1007B000208003F069F98146207B08B9022020736C
:1007C000022084F86A006800A06001206062A662CE
:1007D000E76200202063012084F8340084F814804C
:1007E00094F85400012802D184F8690005E001233F
:1007F00020220521206803F083F994F8680001287D
:1008000005D1002308220321206803F079F921682B
:10081000081D03F073F900909DF800000090204639
:1008200002F03EF8484603F033F9BDE8F8832DE9BD
:10083000F84F04460E4617461D46DDE90B8ADDF8E3
:100840002890022084F83400B8F1000F42D0002D27
:1008500040D003F019F98346207B08B903202073A8
:10086000032084F86A007000A06000206062A76125
:10087000E5612062C4F82890C4F82C802063012030
:1008800084F8340084F814A094F85400012802D1AC
:1008900084F8690005E0012320220521206803F087
:1008A0002FF994F86800012805D1002308220321BC
:1008B000206803F025F92168081D03F01FF9009056
:1008C0009DF800000090204601F0EAFF584603F032
:1008D000DFF800BFBDE8F88F014691F8340070479B
:1008E0002DE9F04104460E4603F0CEF80746A66314
:1008F000384603F0CDF800BF94F83450012DFBD0FA
:100900002846BDE8F08170B504460D46A06BB0B135
:10091000A06BA84203D9A06B401BA0630FE003F0BB
:10092000B3F80646032084F834000020207384F8CE
:100930006900304603F0ACF80020A06300BF70BD32
:100940002DE9F04104460D46164603F09DF8074692
:10095000E563266400206064384603F099F8BDE83A
:10096000F0812DE9F04104460D46164603F08CF85F
:100970000746A564E66400202065384603F088F841
:10098000BDE8F081022902D90222826500E081657A
:10099000704770B504460D4603F076F80646E565E7
:1009A000304603F075F870BD70B5044603F06CF87E
:1009B0000546012304220221206803F0A1F801204A
:1009C00084F86000284603F063F8204601F068FFD1
:1009D00070BD70B5044603F057F8054600230422A5
:1009E0000221206803F08CF8002084F8600028467B
:1009F00003F04EF870BD10B5044694F8600028B1BD
:100A0000012304220221206803F07AF810BD70B59A
:100A100004460D46FE2000EA4506216801F11C004F
:100A2000314603F069F870BD10B50446D4E90021E1
:100A300002F11C0003F060F810BD10B504462168F7
:100A400001F10C0001231A46002103F059F810BDF2
:100A500010B50446216801F10C000023012219465B
:100A600003F04EF810BD2DE9F84304460127216834
:100A7000081D03F043F800909DF8000000F0070106
:100A8000002971D1C0101D286ED2DFE800F0F30FED
:100A900010514252883A97BCCBF4F1F0EFEEEDECF6
:100AA000EBEAE9E8E7E6E5E4E3E2410000BF002322
:100AB00020220521206803F023F8226802F10800B3
:100AC000A16803F019F8216801F108000122002152
:100AD000636A03F015F8606A10B90020206201E033
:100AE0000020206394F8690010B1002084F86900A8
:100AF000207B94F86A10884202D094F86A00207330
:100B0000EBE1012320220521206802F0F9FFE4E156
:100B1000E3E1012310220421206802F0F1FF02200A
:100B200084F83400002020732046FFF764FFD4E1EE
:100B300000BFD4E9071088420AD2236A5A1C2262F5
:100B4000A269D15C226802F1080002F0D5FF25E01D
:100B5000207B032809D10120606201232022052186
:100B6000206802F0CDFF19E09DE100202073207D78
:100B700000F0010584F868504DB9012310220421CA
:100B8000206802F0BDFF2046FFF735FF03E0204656
:100B900001F0CBFE0027002084F834009DE1012302
:100BA00010220421206802F0ABFF022084F83400F8
:100BB000002020732046FFF71EFF8EE1E06A012827
:100BC00006D9012304220221206802F099FF19E0CE
:100BD000E06A012806D1002304220221206802F0E5
:100BE0008FFF0FE0012304220221206802F088FF1A
:100BF000012310220421206802F082FF002084F8E3
:100C00003400207369E1012310220421206802F0DE
:100C100077FF022084F83400002020732046FFF77D
:100C2000EAFE5AE1216801F1080002F067FF01467F
:100C3000226B501C2063A06A8154D4E90B01401E32
:100C4000814205D3002304220221206802F058FFCC
:100C500043E1C4E028E10FE10DE1D0E0CEE0CCE0DB
:100C60007EE029E05BE028E05AE03AE03EE039E04F
:100C70003DE000E019E1216801F1080002F03EFFCB
:100C8000226BA16A8854207D00F0010584F8685029
:100C90004DB9012310220421206802F031FF2046C3
:100CA000FFF7A9FE03E0204601F03FFE00270020E9
:100CB000207384F8340010E100BF012304220221D4
:100CC000206802F01DFF0020207384F8540094F87F
:100CD000690028B1012320220521206802F010FFBD
:100CE000FBE000BF012084F8690000BF00BF0420C2
:100CF000207300202065206120220521206802F059
:100D00000DFF40B1002320220521206802F0F8FEEB
:100D1000012084F86900012084F85400DDE000BF60
:100D2000A06C90B1D4E9131088420ED2216801F171
:100D3000080002F0E3FE0646226D511C2165A16CFD
:100D40008E54216906EB01202061D4E913108842FA
:100D500005D3002304220221206802F0D1FEBCE06A
:100D6000207B042827D1A16D206D884201D1206904
:100D70006064E06DC0B1B4F8500082B22046E36D0B
:100D8000A16C98478046B8F1000F03D12046FFF7C9
:100D900032FE08E0002304220221206802F0B0FEA7
:100DA000002084F860000BE0012304220221206867
:100DB00002F0A6FE04E0002060642046FFF71BFE60
:100DC000002084F8540094F8690028B101232022FF
:100DD0000521206802F094FE002020737DE00020B1
:100DE0002073606494F85400012802D1022084F832
:100DF00054002046FFF7FFFD6FE000BF00BF9DF8E5
:100E00000000A82815D105202073002020610120B2
:100E100084F8540020220521206802F07FFE40B1B2
:100E2000002320220521206802F06AFE012084F8B8
:100E30006900D4E91010884206D3216801F1080046
:100E4000FF2102F059FE09E0636C5A1C6264E26BF8
:100E5000D15C226802F1080002F04EFED4E91010C5
:100E6000884207D3002304220221206802F048FEB2
:100E70000020606431E000BF002060640123042290
:100E80000221206802F03CFE002084F8540094F80F
:100E9000690028B1012320220521206802F030FEDC
:100EA0000020207319E000BF00BF0023202205218D
:100EB000206802F025FE00202073606494F834005E
:100EC000012802D1022084F8340094F8540001284B
:100ED00002D1022084F8540000BF00BF2FB10023CC
:100EE00008220321206802F00BFE2168081D02F091
:100EF00005FE0090BDE8F88310B50446216801F1B5
:100F00001000542102F0F8FD10BD70B504460D46E6
:100F100002F0BAFD064605F0010038B1216801F182
:100F2000100001231A46002102F0EAFD05F002003C
:100F300038B1216801F1100001230222194602F0A4
:100F4000DFFD304602F0A4FD70BD70B504460D46CD
:100F500002F09AFD064605F0010038B1216801F162
:100F6000100000230122194602F0CAFD05F002001C
:100F700038B1216801F1100000230222012102F0A2
:100F8000BFFD304602F084FD70BD70B5044602F02E
:100F90007BFD0546216801F1100000234022062157
:100FA00002F0AEFD284602F073FD70BD70B5044638
:100FB00002F06AFD0546216801F11000012340227C
:100FC000062102F09DFD284602F062FD70BD70B55D
:100FD000044602F059FD0546216801F11000012385
:100FE0008022072102F08CFD284602F051FD70BDE1
:100FF00070B5044602F048FD0546216801F1100075
:1010000000231022042102F07BFD284602F040FD5F
:1010100070BD70B5044602F037FD0546216801F148
:10102000100001231022042102F06AFD284602F07C
:101030002FFD70BD70B505460024296801F1100030
:1010400002F05CFD064606F0080008B144F0010419
:1010500006F0200008B144F00204286802F04EFDBA
:10106000064606F0080008B144F00404204670BDAE
:10107000416670470146486E7047000070B50546EE
:10108000324805604FF0FF3100680C3002F004FD7B
:101090004FF0FF312D480068243002F0FDFC0024A1
:1010A00005E000202A4941F82400601CC4B2202C2D
:1010B000F7DB70BD264A42F82010704710B50024B7
:1010C000224800682C3002F0E9FC0446204610BD9E
:1010D00070B504461D480068203002F0DFFC05466C
:1010E0000120A0400543294618480068203002F03E
:1010F000D3FC70BD70B50446012000FA04F5294602
:1011000012480068243002F0C7FC70BD70B50F486B
:1011100000682C3002F0C2FC0546002412E00120D9
:10112000A04000EA05065EB1094850F8240018B94D
:101130002046FFF7DFFF03E0054951F82400804710
:10114000601CC4B2202CEADB70BD0000E00100206E
:101150004CE30020F0B50346C2F38F060C460D4663
:10116000002005E0FA4F57F8237044F82070401C27
:10117000B042F7D302F00307D01B04E0F44F17F896
:1011800023702F54401C9042F8D3F0BD00BFF049AB
:10119000E03101EB0011C98821F02002EC49E03177
:1011A00001EB0011CA8000BF00BFE949E03101EB4B
:1011B0000011C98841F08002E549E03101EB0011DE
:1011C000CA8000BF704700BFE149E03101EB001168
:1011D000498821F01002DE49E03101EB00114A801C
:1011E00000BF00BFDA49E03101EB0011498841F04E
:1011F0004002D749E03101EB00114A8000BF70473F
:1012000010B504460020D349087048708870C87033
:10121000D1480470084684710420D049C872CD4971
:10122000887902F03BF900BFC9482038407840F087
:101230004000C7492039487000BF0220C549C87026
:1012400010BDC74908607047C6490860704710B5AF
:101250000446012004EB440101EBC401BF4A02EB48
:1012600081018872204601F0A6F910BD10B5044630
:101270002046FFF7A8FF10BD00BFB549E03101EBE4
:101280000011498841F00802B149E03101EB001139
:101290004A8000BF704710B50446012004EB4401AA
:1012A00001EBC401B04A02EB81018872204601F0D3
:1012B00075F910BD10B504462046FFF767FF10BD55
:1012C00000BFA349E03101EB0011C98841F01002D1
:1012D0009F49E03101EB0011CA8000BF704700BF99
:1012E0009B482038408A40F48071994820384182D8
:1012F00000BF704770B50546984C00202070A07262
:101300000420E07200202073A06125810820606223
:1013100002F027FA70BD70B506460D468F4CA661E7
:10132000E56100202062A0622189E069884202D93B
:101330002089606200E06562884802F025FA70BD8D
:1013400070B506460D46854CA661E5610020206219
:10135000A0622189E069884202D92089606200E0A8
:1013600065627E4802F098FA70BD2DE9FC5F074681
:10137000894616461D46DDE90CABDDF83C800120B0
:1013800001904002009007EB470000EBC700734953
:1013900001EB80046F488079C8B9B8F1010F0ED015
:1013A000B8F1020F03D0B8F1030F0CD103E04FF4F2
:1013B000007000900AE04FF48060009006E04FF467
:1013C0008060009002E00020019000BF1BE06148B7
:1013D0008079012817D1B8F1010F0CD0B8F1020FB4
:1013E00003D0B8F1030F0AD102E04020009009E0D9
:1013F0004020009006E040F2FF30009002E0002024
:10140000019000BF00BF0098854201DD00200190DF
:10141000AE4201DA00200190019801281CD1B6EB00
:10142000450F01DB607001E0002060702770A4F8B8
:1014300004906680258184F814A084F806B00E9884
:10144000E0710020A072E07284F80C80A061109816
:101450002061204602F0A0F8BDE8FC9F2DE9FC5F6A
:101460000746894616461D46DDE90CABDDF83C8093
:10147000012001904002009007EB470000EBC700FD
:10148000394901EB800433488079C8B9B8F1010FBC
:101490000ED0B8F1020F03D0B8F1030F0CD103E066
:1014A0004FF4007000900AE04FF48060009006E076
:1014B0004FF48060009002E00020019000BF1BE02C
:1014C00024488079012817D1B8F1010F0CD0B8F168
:1014D000020F03D0B8F1030F0AD102E040200090C0
:1014E00009E04020009006E040F2FF30009002E06A
:1014F0000020019000BF00BF0098854201DD002060
:101500000190AE4201DA00200190019801281CD11F
:10151000B6EB450F01D3607001E0002060702770CA
:10152000A4F804906680258184F814A084F806B09D
:101530000E98E0710020A072E07284F80C80A06127
:1015400010982061204602F097F8BDE8FC9F00004B
:1015500020300440CCE30020EC010020DCE300203C
:10156000E4010020E8010020B8E400202DE9FC415E
:1015700006460F46154606EB460000EBC600FE4940
:1015800001EB8004A761E56100202062A06235B113
:101590002089A84202D82089606200E06562217B30
:1015A000E069CDE90010E379A2792078A16901F022
:1015B00040FCBDE8FC812DE9FE4306468846154601
:1015C000012706EB460000EBC600EC4901EB800466
:1015D000002E3DD0B8F1000F3AD06078012800D13C
:1015E00002272670C4F81880E56100202062A062FE
:1015F000207B022807D16088A84201D365621BE0E6
:101600006088606218E0207B032809D12089784334
:10161000A84203D82089784360620DE065620BE040
:10162000207B012808D120897843A84203D820894B
:101630007843606200E06562227BE169606ACDE91F
:1016400000210290E379A2792078A16901F031FCB0
:10165000BDE8FE8310B50446204601F05EFF10BDD4
:1016600000BFC7480078704700BFC548407840F0C9
:101670008000C349487000BF704700BFC048407831
:1016800020F08000BE49487000BF704710B5044686
:10169000204600F062FF10BD014600BFB94800EBD4
:1016A0000110C088C0F34000704700BFB449C9882A
:1016B000012282409143B24AD18000BF704700BFEF
:1016C000AF490989012282409143AD4A118100BF8F
:1016D000704700BFAA49C9880122824092B21143D3
:1016E000A74AD18000BF704700BFA54909890122E0
:1016F000824092B21143A24A118100BF704700BFDD
:101700009F48C08840F001009D49C88000BF7047D5
:1017100000BF9B48C0884FF6FE7108409849C880BA
:1017200000BF7047704710B5002097490870487097
:1017300088700320C87004209049C8720020924924
:10174000087300BF8E484078C0F3001010B100202D
:10175000887102E001208C49887100208B49087053
:10176000487048808880C8804020FFF7C3FD08216A
:101770008648FFF7D0FD10BD70B504460D4684487D
:101780000068C06858B1824800682A462146C3688C
:101790007E489847012800D170BD0020FCE700205A
:1017A000FAE770B504460D4679480068C06858B13C
:1017B000774800682A462146C3687448984701283C
:1017C00000D170BD0020FCE70020FAE70020704740
:1017D00010B501246D48C088002848D16A48C078F7
:1017E000032844DD6948408850B101283CD167484E
:1017F000007800F01F0010B900206349087335E03D
:101800006248007800F01F0002282CD15F48007960
:1018100040B35E48007900F0800098B100205B4939
:10182000097901F07F0101EB410202EBC101534A4A
:1018300002EB810188725549097901F07F00FFF7B9
:10184000C2FC10E000205149097901EB410202EB92
:10185000C101494A02EB810188724C490879FFF7BE
:1018600095FC00E0012401E0002400BF00E000241A
:10187000204610BD10B501244448C08800285DD121
:101880004248408898B1012802D0022853D146E04E
:101890003E48007800F01F0038B93B48C078032864
:1018A00003DD01203849087300E0002445E0374893
:1018B000007800F01F0002282FD13448007960B36F
:1018C0003148C078052828D13048007900F08000E0
:1018D00098B101202D49097901F07F0101EB410206
:1018E00002EBC101254A02EB81018872274909797F
:1018F00001F07F0000F05FFE10E00120234909792C
:1019000001EB410202EBC1011B4A02EB810188722B
:101910001E49087900F042FE00E000240DE01B485B
:10192000007800F01F0020B91848007908B9012498
:1019300000E0002401E0002400BF00E00024204675
:1019400010BD10B502461048C078042849D10F4890
:10195000408880B90D48808868B90C48C088022842
:101960003DD10A48007800F01F0098B1012817D037
:1019700002282ED11AE032E0B8E40020DCE3002097
:101980000030044000310440CCE30020F00100208E
:10199000E80100200120F84B1880184610601AE07A
:1019A0000020F54B18801846106014E0F34880883A
:1019B00000EB400303EBC000F14B03EB8000807AA7
:1019C00008B1012000E00020EB4B188018461060A1
:1019D00001E0002010BD00BF022008606EE0002082
:1019E000F8E7E848C078052862D1E4484088002834
:1019F0005CD1E248C088022858D1E048007800F065
:101A00001F0020B101280FD0022849D11BE001207E
:101A1000D94B1880DB48007B1B8843EA4000D64B3B
:101A20001880184610603DE0D4488088D54B5B781C
:101A3000984205DC0020D04B18801846106001E069
:101A40000020C7E72EE0CD48007900F08000A0B16B
:101A5000CA4B1B7903F07F0000EB400303EBC0038C
:101A6000C74C04EB83039B7A0BB1012300E00023F6
:101A7000C14C23802346136011E0C048808800EBEE
:101A8000400303EBC000C04B03EB8000807A08B139
:101A9000012000E00020B84B18801846106001E0DB
:101AA000002097E700BF0220086007E0002091E7D0
:101AB000B448C078032801D100208BE7012089E7D2
:101AC0000246AE48408860B9AC48808848B9AB4807
:101AD000C088012805D1AB48C01D106001200860F6
:101AE00070470020FCE710B5A4488478A548C0786A
:101AF000032801D1002010BDA248C471C078042879
:101B00000FD1FCB105209F49C870A048006800684B
:101B1000C0B1084681799D48006802682046904718
:101B20001CE09848C078052818D164B9042095496C
:101B3000C87096480068406820B1944800684168C1
:101B4000204688470AE091480068006830B18D4817
:101B500081798E4800680268204690470120CAE7D4
:101B60008648807800F07F0186480170834880783D
:101B700000F07F018348C078052801D1002070471C
:101B80008048C078032804D159B104207D4AD07020
:101B900007E07C48C078042803D111B90320794AB2
:101BA000D0700120EBE770B504460D467548C0784B
:101BB00003287DDB7148007800F08000802877D111
:101BC0006E48007800F01F00002872D16B484088F2
:101BD0000012082878D2DFE800F0770443187777FE
:101BE00028556648807870B96448808858B9684834
:101BF0000068006838B16648006801682846884770
:101C00002060012070BD0020FCE76148006880680A
:101C100048B15A4988785E4909688A6829469047D8
:101C200020600120EEE70020ECE75A480078A8B9D0
:101C30005248807880B95148808868B95448006813
:101C4000406848B14F498879514909684A6829462E
:101C5000904720600120D5E70020D3E70020D1E79E
:101C60004A480068806858B1464883794748006808
:101C70002A46022186680020B04720600120C1E783
:101C80000020BFE743480078D8B93C488078D0B9F5
:101C90003A488088B8B93D480068806878B13948CA
:101CA00083793A4800682A4607218668002002E0C6
:101CB00045E00CE008E0B04720600120A2E70020EA
:101CC000A0E700209EE701E000209BE737E02B48DB
:101CD000007800F01F00012813D12C4800688068AC
:101CE00068B1284883792548408801122748006850
:101CF0002A4686680120B0472060012082E7002044
:101D000080E71E48007800F01F00022817D11B480A
:101D10004088001288B11D480068806868B1194881
:101D20008379164840880112184800682A46866858
:101D30000220B0472060012064E7002062E7002015
:101D400060E770B504460D4600260C4840780C2824
:101D500048D2DFE800F02933472E470D063824210A
:101D6000413B29462046FFF71EFF0646304670BD20
:101D7000FFF7F6FE38E00000EE010020F001002041
:101D8000DCE30020CCE30020B8E40020E8010020E0
:101D9000E4010020EC010020FFF7A5FE24E0294625
:101DA0002046FFF78DFE1FE029462046FFF7C9FDBC
:101DB0001AE0FFF75FFD06463046D8E7FFF708FD5B
:101DC00006463046D3E7FFF701FD0DE0FE48807878
:101DD000FE4908720120CAE7FC4808302060012053
:101DE0002860C4E70020C2E700BF0120BFE7FEB5BE
:101DF00005460020029001900026F54C05F00300F6
:101E000068B10420E0720020EF49087048704880F3
:101E10008880C8800821EC48FFF77DFABCE02046A6
:101E200001F06BFD606A082823D10520E072E648C6
:101E3000007800F0600028B901A902A8FFF781FF2F
:101E4000064616E0E048007800F06000202805D142
:101E500001A902A8FFF7A5FC06460AE0DA480078C7
:101E600000F06000402804D101A902A8FFF784FC1B
:101E70000646002E7DD000BF0020D649887300BFE3
:101E8000D148C08800285ED1009000BF4821D148C9
:101E9000418200BF0420E072CB484078052810D171
:101EA0000020009002E00098401C009041F2883130
:101EB00000988842F7D3C5490878C649087000BF22
:101EC00000BFC1484078032831D1BF48408802286C
:101ED0002DD10020009002E00098401C009041F2BB
:101EE000883100988842F7D3B748808800120128CB
:101EF00006D002280AD003280ED0042815D111E0FC
:101F000000BF0220B349C87300BF0FE000BF042028
:101F1000B049C87300BF09E000BF0120AD49C873D4
:101F200000BF03E001F088F900E000BF0AE00020F4
:101F3000A5490870487048808880C8800821A24858
:101F4000FFF7E9F928E000F043FB9F48007800F034
:101F5000800078B10620E0729B48C08801998842D1
:101F600002D29948C0880190DDE90110FFF7E8F935
:101F700012E006E00720E072DDE90110FFF7CBF97F
:101F80000AE00420E07200208F4908704870488001
:101F90008880C88000F030FBFEBD70B506468C4CD2
:101FA00006F00300B0B100208749087048704880EF
:101FB0008880C88088480068C06920B18648006869
:101FC000C169304688470420E07208217E48FFF747
:101FD000A2F94DE0204601F090FCE07A072847D1B5
:101FE000D4E9071088421FD17B480068C06920B13E
:101FF00079480068C1693046884700BF00207549AC
:10200000887300BF70490870487048808880C88015
:102010000420E07200BF48216E48418200BF0821C1
:102020006948FFF778F923E0D4E90710884214D211
:1020300000F0CEFAD4E90701451A2089A84202D857
:102040002089606200E065620020A062236AA269C4
:10205000D018616AFFF75FF90AE000205A4908705A
:10206000487048808880C8800420E07200F0C4FA7C
:1020700070BD70B50546564C05F00300B0B10020A8
:1020800051490870487048808880C880524800686C
:10209000806920B15048006881692846884704203B
:1020A000E07208214848FFF736F93CE0E07A06285C
:1020B00039D1D4E90710884216D2A16AA069084430
:1020C000A061D4E90701401A2189884202D32089FE
:1020D000606203E0D4E90701401A60620020A06258
:1020E000204601F0D9FB1EE03B480068806920B122
:1020F000394800688169284688470020A06220622C
:10210000E06160620420E07200202F49087048708E
:1021100048808880C88000BF2E49887300BF08218E
:102120002948FFF7F8F870BD2DE9FC4705468846B9
:102130004FF0000905EB450000EBC500274901EB16
:102140008004002608F00F0010B14FF00109A8E04C
:1021500000BF234800EB0510C08800F001000028F4
:10216000F5D000BF1E4800EB051000890646A07997
:10217000012857D1284600F003FA01283DD1E07923
:10218000184901EB0011496821F00102154901EBE2
:1021900000114A6000BF00BF114800EB0510C08865
:1021A00020F400410E4800EB0510C18000BFE0792B
:1021B00000F0EEF90746A169781A2062D6B1226ACA
:1021C000A069811832460FE0F0010020CCE3002026
:1021D000DCE3002000300440E8010020B8E40020E7
:1021E00000310440003204402846FEF7B3FF206A65
:1021F000304420624FF001094FE0E079F64901EBED
:102200000011CE6000BFE079F34901EB001149688D
:1022100041F00102F04901EB00114A6000BF4FF0AC
:1022200002093AE056B1226AA0698118324628466E
:10223000FEF790FFA662206A30442062207B0228CD
:1022400025D12069012814D1D4E90710884209D288
:102250002189A06A884202D24FF001091DE04FF0A7
:1022600000091AE0D4E90710884216D14FF001099D
:1022700013E0D4E90710884202D14FF001090CE0C5
:10228000D4E90710884208D24FF0000905E02189FF
:10229000A06A884201D84FF00109284600F065F98C
:1022A00000BFB9F1000F1DD1D4E90701401A2189FF
:1022B000884202D32089606203E0D4E90701401A12
:1022C00060620020A062217BE069CDE90010D4F8B3
:1022D00020C0A76907EB0C01E379A279207800F010
:1022E000A8FD0DE0B9F1010F0AD1BC4800684069B2
:1022F00030B1BA48226A0068414643692846984787
:10230000BDE8FC872DE9FE4305460E460027B8468A
:1023100005EB450000EBC500B14901EB800406F078
:10232000020008B1012735E0A079012809D1E07940
:1023300000F02EF98046A069A8EB0000206201277A
:1023400028E0606AA062D4E9080108442062207B8A
:1023500002281ED1D4E90710884201D2002719E0D3
:10236000D4E90710884215D1206901280FD1A06A4D
:1023700008B901270EE02189A06A884201D100270F
:1023800008E02189A06A884204D2012702E00127DF
:1023900000E00127012F0AD190480068006960B36E
:1023A0008E480068314602692846904725E00020A3
:1023B000A062D4E90701401A2189884202D320890A
:1023C000606203E0D4E90701401A606200BF207830
:1023D00000F0C3F80028FAD1227BE169606ACDE9F8
:1023E00000210290D4F818C0D4F820900CEB090119
:1023F000E379A279207800F05CFDBDE8FE8302203D
:102400007849C97A0143774AD17200BF7648C078CB
:10241000754908710620C870704773480079724981
:10242000C870704710B500206F49C87000BF6D4973
:10243000088100BF00BF0846C08800F00100C880C6
:1024400000BF152000F080F8142000F07DF86348EC
:102450000068406820B1614800684168FF208847F3
:1024600010BD2DE9F04105460E461746984600245A
:10247000402F67D0012E3CD105EB450000EBC50095
:10248000574901EB8004284600F07AF8012823D14F
:10249000206908BBE069F8B12189E069B0FBF1F27D
:1024A00001FB1200C0B900BF00BF504800EB05108F
:1024B000408800F001000028F6D1A069A8EB0000D8
:1024C0002062464800680069E0B344480068394625
:1024D00002692846904735E000BF444800EB0510EC
:1024E000408840F00101414800EB0510418000BFE9
:1024F00028E03EBB05EB450000EBC5003C4901EB85
:1025000080042069F0B9E069E0B12189E069B0FB9D
:10251000F1F201FB1200A8B9A069A8EB000020624B
:10252000284600F02DF810B9284600F01EF82B4878
:102530000068406930B12948226A00683946436919
:1025400028469847BDE8F08100F01F020121914024
:10255000284A430942F8231070470146234800EBFC
:1025600001104088C0F340007047204901EB001182
:10257000C98821F001021D4901EB0011CA80704792
:1025800001461A4800EB0110C088C0F3C020704714
:102590000146114800EB01108068704700BF1349E5
:1025A00001EB0011C98841F02002104901EB001134
:1025B000CA8000BF704700BF0C4901EB0011498879
:1025C00041F01002094901EB00114A8000BF704739
:1025D000402104484182704700320440E801002055
:1025E000DCE3002000300440CCE300200031044054
:1025F000B8E4002080E200E0602101484182704799
:102600000030044070B505460C469A4805609A486B
:1026100004709A48FEF718FE70BD70B504460D466A
:102620002A4621460120FEF7C6FF70BD70B504465C
:102630000D462A4621460120FEF798FF70BD9048BE
:102640000078704730B504468CB9022906D10220C3
:102650008C4D68704B201060284630BD072909D189
:102660000720884D68704B2010602846F5E7022C43
:1026700000D000BF0020F0E730B587B004460D461B
:10268000012003210022CDE90102CDE903104023FE
:102690000203502100900220FEF767FE0120022174
:1026A0000190CDE902010490402302030102009051
:1026B000FEF75BFE01200221CDE90101CDE9031007
:1026C0004023020381020090FEF7C8FE01206C49FE
:1026D000087068480068006818B1664909680868A9
:1026E000804764480068406928B16248006805A9CD
:1026F000426906A89047069820B10220DDE905212D
:10270000FEF759FF012007B030BD10B50446022086
:1027100000F09CF8022000F0A1F8002000F0A4F8DE
:10272000012059490989012282409143564A118169
:1027300000BF00BF0022554901EB0011CA8000BF55
:10274000022000F091F8012000F080F8012000F054
:1027500085F8012000F088F846480068406820B1FC
:102760004448006841682046884700204449087072
:10277000012010BD70B504460D4616463D48006860
:10278000806858B13B480068324629468368204635
:102790009847012800D170BD0020FCE70020FAE72F
:1027A0007CB504460D46022C11D1324800684069C0
:1027B00028B1304800686946426901A890470198ED
:1027C00098B10220DDE90021FEF7F5FE0DE0012CB5
:1027D00009D128480068C06838B126480068C16837
:1027E0002846884701E000207CBD0120FCE770B549
:1027F00004460D461646012C0AD11E4800680069A1
:1028000040B11C480068314602692846904701E003
:10281000002070BD0120FCE710B504461548006893
:10282000806920B1134800688169204688470120EB
:1028300010BD10B504460F480068C06920B10D48AE
:102840000068C16920468847012010BD0E49C9882B
:102850000122824091430C4AD180704700220B49EB
:1028600001EB00114A8070470022094901EB001179
:102870004A607047480200204C02002028020020D5
:10288000240200204D0200200030044000310440AA
:102890000032044070477047704770477047704778
:1028A00010B504464D48844202D1222000F082F83F
:1028B0004A486C30844202D1232000F07BF847481C
:1028C000D830844202D1242000F074F84448844275
:1028D00002D1252000F06EF841486C30844202D1CC
:1028E000262000F067F83E48D830844202D12720E5
:1028F00000F060F83B48844202D1282000F05AF8EA
:1029000038486C30844202D1292000F053F8354811
:10291000D830844202D12A2000F04CF83248844258
:1029200002D12B2000F046F810BD10B504462B480C
:10293000844202D1222000F048F828486C308442BA
:1029400002D1232000F041F825486C38844202D19E
:10295000242000F03AF82248844202D1252000F0D9
:1029600034F81F486C30844202D1262000F02DF844
:102970001C486C38844202D1272000F026F8194800
:10298000844202D1282000F020F816486C3084429E
:1029900002D1292000F019F813486C38844202D182
:1029A0002A2000F012F81048844202D12B2000F0B7
:1029B0000CF810BD00F01F02012191404209920065
:1029C00002F1E022C2F80011704700F01F0201215D
:1029D0009140064A430942F823107047BC74002016
:1029E00000760020447700208878002080E100E015
:1029F000F0B50346C2F38F060C460D46002005E0F5
:102A000054F820C0FE4F47F823C0401CB042F7D313
:102A100002F00307D01B05E015F800C0F84F07F8D7
:102A200023C0401C9042F7D3F0BD0146002000BFF8
:102A3000F34AE03202EB0112D288C2F3800282B183
:102A400040F0010000BFEE4AE03202EB0112D288F2
:102A500022F00403EA4AE03202EB0112D38000BF05
:102A600000BF00BFE64AE03202EB0112D288C2F397
:102A7000801282B140F0020000BFE14AE03202EB76
:102A80000112D28822F04003DD4AE03202EB01124B
:102A9000D38000BF00BF00BFD94AE03202EB011271
:102AA000D288C2F3C0020AB140F00400704770B58A
:102AB00005460124002621E06D1005F00100D0B18B
:102AC00000BFCF48203800890121A1408843CC496C
:102AD0002039088100BF00F0EDFB012808D1204615
:102AE000FFF7A3FF0646C7483146026820469047D5
:102AF000204600F0D6FB0026601CC4B2002DDBD1BE
:102B000070BD0146002000BFBD4AE03202EB011259
:102B10005288C2F3800282B140F0010000BFB84A7F
:102B2000E03202EB0112528822F00403B44AE03290
:102B300002EB0112538000BF00BF00BFB04AE03279
:102B400002EB01125288C2F3401282B140F002003F
:102B500000BFAB4AE03202EB0112528822F02003A0
:102B6000A74AE03202EB0112538000BF00BF70475A
:102B700070B505460124002621E06D1005F0010026
:102B8000D0B100BF9E482038C0880121A1408843B1
:102B90009B492039C88000BF00F08CFB012808D178
:102BA0002046FFF7AEFF064696483146426820466B
:102BB0009047204600F06CFB0026601CC4B2002D3C
:102BC000DBD170BD10B50024002000F05EFB00F0EA
:102BD00071FB012844D100BF89482038408AC0F3E6
:102BE000800040B144F0020400F070FB8548816829
:102BF0002046884734E000BF81482038408AC0F32F
:102C0000001070B100F069FB00F05BFB10B944F0FC
:102C1000010401E024F001047A48816820468847D5
:102C20001EE07948007838B900F04BFBC0B1754818
:102C300081682046884713E073480078012804D152
:102C400070480169204688470AE06F4800780228EA
:102C500006D100F036FB18B16A48C16820468847A3
:102C600010BD1FB500BF66482038807A039000BFB2
:102C7000634820384088029000BF6148203880882F
:102C800001909DF80C0000F0200078B100BF5C4876
:102C900040300078C00900909DF80000012805D15F
:102CA000042000F0ECFA5749486A804700F002FB24
:102CB000012829D19DF80C0000F0020010B1514903
:102CC000086A80479DF80C0000F0010010B14D49E2
:102CD000C86980479DF80C0000F00400A0B10020F6
:102CE00000F0D3FA212000F0CAFA0020464908700B
:102CF00000BF43492039887200BF00F0EEFA00F0AF
:102D0000E5FA404988698047BDF8080000F00100F5
:102D100008B1FFF757FFBDF808004FF6FE710840F5
:102D200038B1BDF8080008400290BDF80800FFF770
:102D30001FFFBDF804004FF6FE71084018B1BDF842
:102D40000400FFF7B4FE1FBD2DE9F8430024A046A0
:102D5000A14600BF2D480068C7B266E007F0010039
:102D600000285FD000BF294800EB0410406820F025
:102D70000101264800EB0410416000BF00BF23485A
:102D800000EB0410406800F0F00000909DF8000097
:102D9000051100BF00BF1D4800EB04104068C0F3E0
:102DA000400600BF00BF194800EB04104068C0F3A4
:102DB000002070B148F0400800BF144800EB041038
:102DC000406820F48071114800EB0410416000BF9E
:102DD00028E000BF0D4800EB041080688146012EFA
:102DE0000BD100BF0648E03000EB05104088C0F36F
:102DF000003010B1284600F0B2FA00F05BFA07E0AC
:102E000020300440F80100209802002000320440E5
:102E1000012807D1F8484B4642463146D0F828C031
:102E20002846E047601CC4B27F10002F96D1BDE851
:102E3000F8832DE9F0470446884615461E46DDE92D
:102E40000897012D33D14146304600F0FAFAB9F126
:102E5000020F1AD1204600F0BDFA00BFE74800EB90
:102E60000410C08840F40041E44800EB0410C18025
:102E700000BF204600F0C4FA3946304600F0E6FABA
:102E8000AFB1304600F0D2FA11E000BFDB4800EBF2
:102E90000410C08820F40041D84800EB0410C18021
:102EA00000BF204600F0A1FA204600F0B4FABDE8C9
:102EB000F0872DE9F04704460D4616461F46DDE92A
:102EC000089ADDF8288074B36DB3012E19D1294614
:102ED000384600F0B6FAB9F1020F07D1204600F0EB
:102EE00033FA5146384600F0B1FA06E0204600F0C9
:102EF00036FA4146384600F0A9FA384600F096FA0C
:102F000011E0424629462046FFF772FD00BFBB484C
:102F100000EB0410408840F00101B84800EB0410B9
:102F2000418000BF00BFBDE8F0872DE9F0470446AF
:102F30000D4616461F46DDE9088900BFB04800EB84
:102F400004104068F02101EA08110843AC4901EB84
:102F50000411486000BF00BFA94800EB041040689E
:102F600040EA4501A64800EB0410416000BF00BFE5
:102F7000A34800EB0410406840EA8601A04800EB3B
:102F80000410416000BF00BF9D4800EB0410406882
:102F90004FF4C06101EA47210843994901EB04114C
:102FA000486000BF4946204600F04BFA00BF9448F5
:102FB00000EB0410406840F00801914800EB041059
:102FC000416000BFBDE8F0872DE9FC4104460126C1
:102FD0006078012800D102262078628892FBF6F200
:102FE00091B263780027002817DD082915D3DFF890
:102FF00014C28CF80E00CA0804E0521007F1010C4C
:103000000CF0FF0702F0010CBCF1000FF5D047EA0D
:10301000031CDFF8F08188F862C000BF2078A18827
:10302000002805DD774A9073CA08764B64331A800E
:1030300000BF607801280AD12078734909880122ED
:10304000824091436F4AA2F8421300BF0DE06078BE
:1030500058B920786C4909880122824092B2114304
:10306000684AA2F8421300BF00BF237D2289217B5A
:10307000207800F039F92078604901EB0011498887
:1030800041F040025D4901EB00114A8000BFA07988
:1030900001282DD1207B022810D12078574901EB3F
:1030A0000011498841F48062544901EB00114A80C3
:1030B00000BF207800F048F901250FE020784F4943
:1030C00001EB0011498821F480624C4901EB0011A9
:1030D0004A8000BF207800F042F900252178A069DD
:1030E000CDE90010E07903232A460121FFF71DFFF7
:1030F000207800F0CDF8BDE8FC812DE9FC410446C4
:1031000001266078012800D102262078628892FB8F
:10311000F6F291B263780027002817DD082915D34D
:10312000DFF8E0C08CF80E00CA0804E0521007F186
:10313000010C0CF0FF0702F0010CBCF1000FF5D000
:1031400047EA031CDFF8BC8088F863C000BF207822
:10315000A188002805DD2B4A9073CA08294B6633E5
:103160001A8000BF607801280BD120782649891E7B
:103170000988012282409143224AA2F8401300BFED
:103180000EE0607860B920781F49891E0988012205
:10319000824092B211431B4AA2F8401300BF00BF05
:1031A000237D2289217B207800F0E4F820781349E0
:1031B00001EB0011C98841F08002104901EB0011B8
:1031C000CA8000BF20780D4901EB0011C98821F0A9
:1031D00001020A4901EB0011CA8000BFA079012851
:1031E00025D1207B022811D1207800F0F3F8207837
:1031F00000F006F9012510E0F8010020003104403C
:10320000003204400030044042330440207800F093
:10321000ECF8207800F0FFF800252178A069CDE9CE
:103220000010E07903232A460021FFF77EFE207874
:1032300000F037F8BDE8FC8100B58FB0382286A1D8
:1032400001A800F071FC352201A90020FFF7D0FB96
:1032500000BF08208E49C87300BF00BF0846408ADF
:1032600040F002018A48418200BF00BFC0884FF68B
:10327000FE7108408649C88000BF0FB000BD844978
:10328000C97A0143824AD172704781498873704775
:103290007F49C9880122824092B211437C4AD18081
:1032A00070477B4909890122824092B21143784AD2
:1032B00011817047764860300078012121EA900042
:1032C00070477348408A00F0010070477048408A98
:1032D00020F004016E48418270476D48408A40F0FA
:1032E00080016B484182704730B50C4600282ADDCA
:1032F000D51702EB5575ED10A2EBC5051DBB002BD4
:1033000021DD1F2B1FD80025624901EB00110D8024
:10331000591E8DB25F4901EB00110D805D4901EB33
:10332000001109884FF6FF7505EAC125594901EBDF
:1033300000110D80574901EB001109881143554DCB
:1033400005EB0015298030BD524901EB0011498879
:1033500041F480524F4901EB00114A8070474D49BA
:1033600001EB0011498821F480524A4901EB001118
:103370004A80704730B50C4600282ADD002A28DD37
:10338000D51702EB5575ED10A2EBC5050DBB1F2B34
:103390001FDC00253F4901EB00118D80591E8DB2C5
:1033A0003C4901EB00118D803A4901EB00118988FD
:1033B0004FF6FF7505EAC125364901EB00118D80F6
:1033C000344901EB001189881143324D05EB00159A
:1033D000A98030BD2F4901EB0011C98841F400627A
:1033E0002C4901EB0011CA8070472A4901EB0011FA
:1033F000C98821F40062274901EB0011CA80704797
:10340000244901EB0011C98841F40052214901EB24
:103410000011CA8070471F4901EB0011C98821F4CF
:1034200000521C4901EB0011CA8070471A4901EB98
:103430000011496841F00102174901EB00114A608F
:103440007047154A02EB001291607047124A02EB76
:103450000012D16070470000000000000000000072
:1034600000AAAAAAAAAAAAAAAAEEEEEEEEEEEEEE8A
:10347000EEFEFFFFFFFFFFFFFFFFFFFFFF7FBFDF4E
:10348000EFF7FBFDFC7EBFDFEFF7FBFD7E000000EA
:1034900000300440003104400032044038B5044696
:1034A0000020F749087000BF0320F649087000BFEC
:1034B00000BFF448007800909DF800000028F8D183
:1034C00000BF00BFEF497F39887200BF142000F0B1
:1034D0003EFA142000F030FA152000F038FA1520DA
:1034E00000F02AFA00BF0020E6497F39088100BFBA
:1034F00000BF0846C08800F00100C88000BF012C52
:1035000007D100BF0846407820F02000487000BF77
:1035100000BF0120DC49088038BD10B504460020FA
:1035200000F01EFAD748C01F007800F00F0020708E
:10353000D448C01F007800096070D248801F00780E
:1035400000F00F00E070CF48801F00780009A070E5
:10355000CC48401F007800092071CA48401F0078FD
:1035600000F00F006071C7487F3890F87B00A071B1
:10357000C4487F3890F87C00E071C2487F3890F8EA
:103580007D002072BF487F3890F87E006072BD4891
:103590007F38C07FA07210BD10B50446207800228D
:1035A000B849813101EB00114A8000BF2078B5494C
:1035B000813101EB0011498821F00402B1498131C8
:1035C00001EB00114A8000BF2078AE49813101EB48
:1035D0000011498821F01002AA49813101EB001144
:1035E0004A8000BF2078A749813101EB001149884A
:1035F00021F02002A349813101EB00114A8000BF74
:10360000207B012820D0022808D003282ED1207842
:1036100000F0B2F9207800F0BAF928E0207800F044
:10362000ABF9A07901280ED120789649813101EBC0
:103630000011498841F400429249813101EB0011A7
:103640004A8000BF00BF12E020788E49813101EB33
:103650000011498841F480428A49813101EB00110F
:103660004A8000BF207800F092F900E000BF00BF60
:103670002046FFF7A9FC10BD10B5044620780022B3
:103680008049813101EB0011CA8000BF20787D495B
:10369000813101EB0011C98821F00402794981319F
:1036A00001EB0011CA8000BF20787649813101EB1F
:1036B0000011C98821F040027249813101EB0011EB
:1036C000CA8000BF20786F49813101EB0011C988A1
:1036D00021F020026B49813101EB0011CA8000BF4B
:1036E000207B012822D002280BD0032833D1207858
:1036F00000F063F9207800F055F9207800F073F9B4
:103700002AE0207800F059F920785E49813101EBF8
:103710000011C98821F480525A49813101EB00110E
:10372000CA8000BF207800F053F915E0207800F03F
:103730005AF920785349813101EB0011C98841F4CD
:1037400080425049813101EB0011CA8000BF2078CE
:1037500000F028F900E000BF00BF2046FFF7CDFCD5
:1037600010BD10B5002000F0FBF800BF0021454857
:103770007F38418200BF00BFC08840F0010041494E
:103780007F39C88000BF10BDC17A042903D1002150
:103790003B4A117008E0C17A052902D0C17A072995
:1037A00002D10221364A1170704710B50446A07943
:1037B00001286DD1E079A169344A02EB00129160D1
:1037C00000BF207B022837D120782E49813101EBC0
:1037D0000011C98841F400622A49813101EB0011CE
:1037E000CA8000BF207800F0F3F8207825498131A5
:1037F00001EB0011C98841F400522249813101EBEB
:103800000011CA8000BFE079E169204A02EB001292
:10381000D16000BF207800F0A6F8E06970B3E079CD
:103820001A4901EB0011496841F00102174901EB07
:1038300000114A6000BF2EE0207800F0D4F8207814
:103840001049813101EB0011C98821F400620D4952
:10385000813101EB0011CA8000BF20780949813114
:1038600001EB0011C98821F400520649813101EBB6
:103870000011CA8000BF207800F075F80BE007E067
:10388000980200207F300440483304400032044056
:10389000207800F068F810BD10B50446207800BB11
:1038A000A06960B1207B50B92078626AA16900F0FC
:1038B000A5F8606AA062D4E9080108442062E07AB1
:1038C000062802D101206C490870D4E9071088420B
:1038D00008D200BF6948408A40F00201674841822F
:1038E00000BF09E0D4E90710884205D300BF0A21D0
:1038F0006248418200BF00BF10BD38B504460020B9
:10390000009000F02DF82078A8B9A06998B100BF08
:103910005A48008B00F07F000090BDF80020A1699C
:10392000002000F08AF8BDF80010206A08442062E8
:10393000BDF80000A06238BD00F01F0201219140D7
:103940004209920002F1E022C2F80011704700F033
:103950001F02012191404A4A430942F8231070474F
:10396000464988737047454909890122824092B2CD
:103970001143424A11817047424901EB00114988C5
:1039800021F480423F4901EB00114A8070473D49D4
:1039900001EB0011498821F400423A4901EB001182
:1039A0004A807047374901EB0011C98841F48052C1
:1039B000344901EB0011CA807047324901EB001114
:1039C000C98821F480422F4901EB0011CA80704759
:1039D0002C4901EB0011C98841F40042294901EB4F
:1039E0000011CA807047274901EB0011C98821F4F2
:1039F0000042244901EB0011CA807047F0B503462C
:103A0000C2F38F060C460D46002006E054F820C095
:103A10001A4F203747F823C0401CB042F6D302F0BB
:103A20000307D01B06E015F800C0144F203707F835
:103A300023C0401C9042F6D3F0BDF0B50346C2F35C
:103A40008F060C460D46002006E00C4F203757F835
:103A5000237044F82070401CB042F6D302F00307F4
:103A6000D01B05E0054F203717F823702F54401C5A
:103A70009042F7D3F0BD00009802002000300440CF
:103A800080E200E000310440EFF3108072B670472E
:103A900080F310887047000001607047006870472D
:103AA0000EB503FA01F303EA020301686FEA0202AA
:103AB00001EA020141EA030101600EBD006800EA6B
:103AC000020020FA01F070470180704700887047BB
:103AD0000EB503FA01F303EA020301886FEA02025A
:103AE00001EA020141EA030101800EBD008800EAFB
:103AF000020020FA01F070470170704700787047AB
:103B00000EB503FA01F303EA020301786FEA020239
:103B100001EA020141EA030101700EBD007800EAEA
:103B2000020020FA01F0704740EA01039B0703D02E
:103B300009E008C9121F08C0042AFAD203E011F8EC
:103B4000013B00F8013B521EF9D27047D2B201E0AE
:103B500000F8012B491EFBD270470022F6E710B592
:103B600013460A4604461946FFF7F0FF204610BDEB
:103B7000421E12F8013F002BFBD111F8013B02F865
:103B8000013B002BF9D17047CAB2401E10F8011F4B
:103B90008A4202D00029F9D100207047421C10F857
:103BA000011B0029FBD1801A704710B5002200E0EC
:103BB000521C835C8C5CA34201D1002BF8D1D8B29B
:103BC000E1B2401A10BD10B5044600E0401C037875
:103BD000002BFBD100E0401C521E04D311F8013B26
:103BE0000370002BF7D100210170204610BD0000AA
:103BF00070B50F4D00B92868002412E00A4602E0B3
:103C00009E4203D0521C1378002BF9D1DAB2224322
:103C100005D02BB124B1002100F8011B04E00446BB
:103C2000401C0678002EE9D12860204670BD0000B7
:103C30009C0200204FF0000B1D48006819490968DC
:103C400001F0030100F01C00142801D14BF0020B1D
:103C5000002901D04BF0010BBBF1000F04D03A4812
:103C60003A49144A00F02AF83948804739488047D1
:103C70000BF0020ABAF1000F12D00B480B49026890
:103C80000B680FB44FF000024FF0FF0302600B60AF
:103C9000BBF1000F04D030483049074A00F00EF85D
:103CA0002F48004738800340308003403480034071
:103CB000180802400000000000000000884237D0D1
:103CC00000F00306002E14D04FF00405A5EB060407
:103CD0004FF0080707FB06F8914669FA08F9002C2F
:103CE00007D080F8009069FA07F900F10100641E1E
:103CF000F5E74FF000060F46091A8846091191466C
:103D000014461546B14206D018BFA0E8340206F1A9
:103D10000106B142F8D108F00F08B8F1000F07D042
:103D200002704FEA322200F10100B8F10108F4E715
:103D30007047FEE7FEE7FEE7FEE7FEE7FEE7FEE789
:103D4000FEE7FEE7FEE7704798E5002098F50020C3
:103D50002B3E0000893D000098E5002098E50020FA
:103D600089010000064C074D06E0E06840F00103C1
:103D700094E8070098471034AC42F6D3FCF708FAF1
:103D8000E49D0000049E00000CB5094801900198D4
:103D9000B0F1204F05D300200649086008610120DA
:103DA0008860054800900549009808600CBD000037
:103DB00000000020008003400000000008ED00E04B
:103DC0005648006840F4807054499839C1F898000A
:103DD0000846D0F8980020F08060C1F8980070473D
:103DE0004E4AB4321168A1F57842023A1AB1B2F5DE
:103DF000803F04D101E0012003E0022001E0002027
:103E000000BF00BF704710B5FFF7EAFF04464CB192
:103E1000012C02D0022C03D103E0FFF7D1FF02E016
:103E200000BF00BF00BF00BF10BD10B5FFF7EBFF24
:103E30003B48006840F4007039490860AFF30080E7
:103E400010BD384908603849086038490860384969
:103E5000384A1160384908603849086038490860B4
:103E600070472E4AB832126802F0040109B930488E
:103E700000E0344870472DE9FC412848006800F014
:103E80008064002C41D12548006800F480558DB92C
:103E90002D482449086080102349086023490860A0
:103EA00024490860244908608000244908602449A6
:103EB000086029E025A103C9CDE900011748001DCC
:103EC0000068C0F382161DF8067037B1012F0BD0C1
:103ED000022F0ED0032F10D110E0FFF7C2FF804653
:103EE0004046FFF7AEFF0DE04FF40040FFF7A9FF9B
:103EF00008E01848FFF7A5FF04E000BF1548FFF7EA
:103F0000A0FF00BF00BF00BF05E0FFF7AAFF80468B
:103F10004046FFF796FFBDE8FC8100009880034013
:103F200014ED00E0A0020020A4020020A80200205E
:103F300040787D01AC020020B0020020B4020020D5
:103F4000B802002080F0FA0200E1F505000100014E
:103F50000202030340420F0070B58C1810F8015B99
:103F600015F0070301D110F8013B2A1106D110F812
:103F7000012B03E010F8016B01F8016B5B1EF9D116
:103F80002B0705D40023521E0DD401F8013BFAE79C
:103F900010F8013BCB1A921C03E013F8015B01F807
:103FA000015B521EF9D5A142D8D3002070BD00009C
:103FB00018484FF0FF010170002080F3098816486F
:103FC000016881F3088815484FF08051016062B69E
:103FD000FEE772B6EFF3098028B1203880E8F00FD1
:103FE0000F490968086000B50E4880475DF804EB8A
:103FF0000D480E490A78027009480D490A680260A6
:10400000106890E8F00F203080F309884EF0040E1D
:1040100062B6704722ED00E00C01002004ED00E0E4
:10402000D8010020656600006601002067010020BD
:10403000DC0100207047000000B58BB00AA8032106
:1040400000220592CDE9062108901146802282487F
:10405000006B814BCDE90130CDE903211D20002308
:104060007E4A7FA10090814801F0ACFF0AA803219D
:1040700000220592CDE906210890114680227C4855
:10408000006B7B4BCDE90130CDE9032103200023F8
:10409000784A79A100907B4801F094FF0AA8032197
:1040A000002205928023CDE9062108907048D0F8BF
:1040B00030027549CDE90332CDE9011004201346E1
:1040C000724A73A100906F48C43001F07BFF0AA8C8
:1040D0000321002205928023CDE90621089064483F
:1040E000D0F830046D49CDE90332CDE90110052047
:1040F00013466B4A6BA100906D4801F063FF0AA85C
:104100000321002205928023CDE90621089058481A
:10411000D0F830066749CDE90332CDE90110062019
:104120001346654A65A100906148C43001F04AFF1A
:104130000AA80321002205928023CDE906210890D8
:104140004B48D0F830086049CDE90332CDE9011081
:10415000072013465D4A5EA10090604801F032FFDF
:104160000AA80321002205928023CDE906210890A8
:104170003F48D0F8300A5A49CDE90332CDE9011061
:1041800008201346574A58A100905448C43001F003
:1041900019FF0AA80321002205928023CDE90621F8
:1041A00008903348D0F8300C5249CDE90332CDE9BC
:1041B000011009201346504A50A10090524801F0C6
:1041C00001FF0AA80321002205928023CDE90621E0
:1041D00008902748D0F8300E4C49CDE90332CDE99C
:1041E00001100A2013464A4A4AA100904648C430AA
:1041F00001F0E8FE0AA80321002205928023CDE900
:10420000062108904648006B4549CDE90332CDE9C7
:1042100001100B201346434A43A10090454801F08A
:10422000D1FE0AA80321002205928023CDE90621B0
:1042300008904148006B4049CDE90332CDE90110B7
:104240000C2013463D4A3EA100903A48C43001F08C
:10425000B9FE0BB000BD0000CC86002095520000D6
:104260004170705461736B55534200000886002002
:10427000749000204D4300004170705461736B498D
:1042800032433000CC880020749200208944000022
:104290004170705461736B49324331007494002053
:1042A000E94500004170705461736B49324332003C
:1042B000548A0020749600204947000041707054D1
:1042C00061736B493243330074980020A9480000A1
:1042D0004170705461736B4932433400DC8B0020B1
:1042E000749A0020FD4900004170705461736B495D
:1042F00032433500749C00205D4B000041707054C7
:1043000061736B4932433600648D0020749E002037
:10431000BD4C00004170705461736B4932433700EB
:1043200074A000201D4E00004170705461736B49F1
:1043300032433800EC8E002074A20020D14F0000E0
:104340004170705461736B4932433900C4B000242A
:10435000002320224FF040514148FCF75AF97EE0FB
:1043600043AB42AA0021084601F072FFBDF80C01E0
:10437000002874D13BA13E48FFF7FAFB3D4805F009
:1043800049F905463B480078E0B93A4840780328A7
:1043900018D138488078012814D13648C0780728C9
:1043A00010DC3448C178002001F09EF9044624B99D
:1043B00031492F48FFF7DCFB4CE030492C48FFF730
:1043C000D7FB47E02B484078102812D12948C37802
:1043D0000178021D002001F0F5F9044624B92649B0
:1043E0002348FFF7C5FB35E024492148FFF7C0FB10
:1043F00030E020484078112828D14FF4807102A87D
:10440000FFF7ABFB1B48807802A9CDE900101948E3
:10441000C3780178021D002001F084F9044684B9B4
:1044200014488178024602A801F02AF905462A4676
:1044300010490F48FFF7C7FB11A10D48FFF798FB84
:1044400003E00E490A48FFF793FB03E00D490848D3
:10445000FFF78EFB4FF480710648FFF77EFB7FE786
:10446000BC7400205B5D2C4932432C302C000000D2
:10447000BC4A0020BC6A0020470000202E0000201B
:104480000D0A000016000020C4B0002400232122E1
:1044900049494A48FCF7BDF88DE043AB42AA0021E8
:1044A000084601F0D5FEBDF80C010028F4D144A166
:1044B0004648FFF75DFB464805F0ACF80546454821
:1044C00090F8000100BB434890F8010103281BD17C
:1044D000404890F80201012816D13E4890F80301A7
:1044E000072811DC3B4890F80311012001F0FCF88B
:1044F000044624B938493548FFF73AFB56E03749B6
:104500003248FFF735FB51E0324890F8010110289E
:1045100015D1304890F8033190F8001100F58272FF
:10452000012001F04FF9044624B92B492748FFF731
:104530001FFB3BE029492548FFF71AFB36E02548D9
:1045400090F8010111282DD14FF4807102A8FFF7D6
:1045500004FB204890F8020102A9CDE900101D4893
:1045600090F8033190F8001100F58272012001F0FB
:10457000D9F804468CB9174890F80211144A02A8D9
:1045800001F07EF805462A4611491048FFF71BFB4B
:1045900013A10E48FFF7ECFA03E010490B48FFF7B0
:1045A000E7FA03E00F490948FFF7E2FA4FF4807198
:1045B0000748FFF7D2FA70E7001000302875002096
:1045C0005B5D2C4932432C312C000000BC4A00209A
:1045D000BC6B0020BC6A0020470000202E00002099
:1045E0000D0A000016000020C4B00024002322227F
:1045F00049494A48FCF70DF88DE043AB42AA002137
:10460000084601F025FEBDF80C010028F4D144A1B4
:104610004648FFF7ADFA464804F0FCFF054645481A
:1046200090F8000200BB434890F8010203281BD118
:10463000404890F80202012816D13E4890F8030243
:10464000072811DC3B4890F80312022001F04CF8D7
:10465000044624B938493548FFF78AFA56E0374905
:104660003248FFF785FA51E0324890F801021028ED
:1046700015D1304890F8033290F8001200F501721D
:10468000022001F09FF8044624B92B492748FFF780
:104690006FFA3BE029492548FFF76AFA36E02548DA
:1046A00090F8010211282DD14FF4807102A8FFF774
:1046B00054FA204890F8020202A9CDE900101D48E2
:1046C00090F8033290F8001200F50172022001F018
:1046D00029F804468CB9174890F80212144A02A827
:1046E00000F0CEFF05462A4611491048FFF76BFA45
:1046F00013A10E48FFF73CFA03E010490B48FFF7FF
:1047000037FA03E00F490948FFF732FA4FF4807196
:104710000748FFF722FA70E7002000309475002068
:104720005B5D2C4932432C322C000000BC4A002037
:10473000BC6C0020BC6A0020470000202E00002036
:104740000D0A000016000020C4B00024002323221C
:104750004FF030214948FBF75CFF8DE043AB42AAA4
:104760000021084601F074FDBDF80C010028F4D1C9
:1047700043A14648FFF7FCF9454804F04BFF0546C6
:10478000444890F8000300BB424890F80103032816
:104790001BD1404890F80203012816D13D4890F8FB
:1047A0000303072811DC3B4890F80313032000F0B3
:1047B0009BFF044624B938493448FFF7D9F956E03D
:1047C00036493248FFF7D4F951E0324890F80103F6
:1047D000102815D12F4890F8033390F8001300F5F6
:1047E0004172032000F0EEFF044624B92A4927480D
:1047F000FFF7BEF93BE029492448FFF7B9F936E055
:10480000244890F8010311282DD14FF4807102A89B
:10481000FFF7A3F91F4890F8020302A9CDE90010A1
:104820001C4890F8033390F8001300F54172032000
:1048300000F078FF04468CB9164890F80213144A29
:1048400002A800F01DFF05462A4611490F48FFF750
:10485000BAF913A10D48FFF78BF903E00F490B4894
:10486000FFF786F903E00F490848FFF781F94FF495
:1048700080710748FFF771F970E7000000760020AB
:104880005B5D2C4932432C332C000000BC4A0020D5
:10489000BC6D0020BC6A0020470000202E000020D4
:1048A0000D0A000016000020C4B0002400232422BA
:1048B00047494848FBF7ADFE89E043AB42AA0021D7
:1048C000084601F0C5FCBDF80C0100287FD142A1CB
:1048D0004448FFF74DF9444804F09CFE0546434820
:1048E00090F8000400BB414890F8010403281BD154
:1048F0003E4890F80204012816D13C4890F8030481
:10490000072811DC394890F80314042000F0ECFE6D
:10491000044624B936493348FFF72AF952E03549AD
:104920003048FFF725F94DE0304890F80104102891
:1049300015D12E4890F8033490F8001400F2044288
:10494000042000F03FFF044624B929492548FFF719
:104950000FF937E027492348FFF70AF932E02348E7
:1049600090F80104112829D14FF4807102A8FFF7B3
:10497000F4F81E4890F8020402A9CDE900101B4883
:1049800090F8033490F8001400F20442042000F080
:10499000C9FE04466CB9154890F80214124A02A8E0
:1049A00000F06EFE05462A460F490E48FFF70BF948
:1049B00003E010490B48FFF7DBF803E00E49094814
:1049C000FFF7D6F84FF480710748FFF7C6F874E791
:1049D000004000306C7600205B5D2C4932432C3463
:1049E0002C000000BC4A0020BC6E0020BC6A0020E5
:1049F000470000202E00002016000020C4B0002434
:104A00000023252249494A48FBF703FE8DE043ABCA
:104A100042AA0021084601F01BFCBDF80C01002849
:104A2000F4D144A14648FFF7A3F8464804F0F2FD4C
:104A30000546454890F8000500BB434890F801053D
:104A400003281BD1404890F80205012816D13E48A2
:104A500090F80305072811DC3B4890F80315052062
:104A600000F042FE044624B938493548FFF780F883
:104A700056E037493248FFF77BF851E0324890F86A
:104A80000105102815D1304890F8033590F800152D
:104A900000F20452052000F095FE044624B92B498B
:104AA0002748FFF765F83BE029492548FFF760F8FC
:104AB00036E0254890F8010511282DD14FF480717A
:104AC00002A8FFF74AF8204890F8020502A9CDE9AC
:104AD00000101D4890F8033590F8001500F20452BC
:104AE000052000F01FFE04468CB9174890F8021507
:104AF000144A02A800F0C4FD05462A461149104890
:104B0000FFF761F813A10E48FFF732F803E01049F0
:104B10000B48FFF72DF803E00F490948FFF728F885
:104B20004FF480710748FFF718F870E70050003025
:104B3000D87600205B5D2C4932432C352C000000D8
:104B4000BC4A0020BC6F0020BC6A00204700002047
:104B50002E0000200D0A000016000020C4B0002422
:104B60000023262249494A48FBF753FD8DE043AB19
:104B700042AA0021084601F06BFBBDF80C01002899
:104B8000F4D144A14648FEF7F3FF464804F042FD45
:104B90000546454890F8000600BB434890F80106DA
:104BA00003281BD1404890F80206012816D13E4840
:104BB00090F80306072811DC3B4890F803160620FE
:104BC00000F092FD044624B938493548FEF7D0FF7D
:104BD00056E037493248FEF7CBFF51E0324890F8B3
:104BE0000106102815D1304890F8033690F80016C9
:104BF00000F20462062000F0E5FD044624B92B49CA
:104C00002748FEF7B5FF3BE029492548FEF7B0FFEE
:104C100036E0254890F8010611282DD14FF4807117
:104C200002A8FEF79AFF204890F8020602A9CDE9F3
:104C300000101D4890F8033690F8001600F2046248
:104C4000062000F06FFD04468CB9174890F8021654
:104C5000144A02A800F014FD05462A4611491048DE
:104C6000FEF7B1FF13A10E48FEF782FF03E01049E3
:104C70000B48FEF77DFF03E00F490948FEF778FF78
:104C80004FF480710748FEF768FF70E7006000305E
:104C9000447700205B5D2C4932432C362C00000009
:104CA000BC4A0020BC700020BC6A002047000020E5
:104CB0002E0000200D0A000016000020C4B00024C1
:104CC0000023272249494A48FBF7A3FC8DE043AB68
:104CD00042AA0021084601F0BBFABDF80C010028E9
:104CE000F4D144A14648FEF743FF464804F092FC45
:104CF0000546454890F8000700BB434890F8010777
:104D000003281BD1404890F80207012816D13E48DD
:104D100090F80307072811DC3B4890F80317072099
:104D200000F0E2FC044624B938493548FEF720FF7C
:104D300056E037493248FEF71BFF51E0324890F801
:104D40000107102815D1304890F8033790F8001764
:104D500000F20472072000F035FD044624B92B4907
:104D60002748FEF705FF3BE029492548FEF700FFED
:104D700036E0254890F8010711282DD14FF48071B5
:104D800002A8FEF7EAFE204890F8020702A9CDE942
:104D900000101D4890F8033790F8001700F20472D5
:104DA000072000F0BFFC04468CB9174890F80217A2
:104DB000144A02A800F064FC05462A46114910482E
:104DC000FEF701FF13A10E48FEF7D2FE03E01049E3
:104DD0000B48FEF7CDFE03E00F490948FEF7C8FE79
:104DE0004FF480710748FEF7B8FE70E7007000309E
:104DF000B07700205B5D2C4932432C372C0000003B
:104E0000BC4A0020BC710020BC6A00204700002082
:104E10002E0000200D0A000016000020C8B000245B
:104E20005CA0006845905CA0006844905BA00068AE
:104E30004390002328225A495A48FBF7EAFB0323F0
:104E400045AA2021082000F0BDFC032344AA20210C
:104E5000082000F0B7FC47A800210B460222CDE94C
:104E60000010084601F0CEFC032343AA20210820AD
:104E700000F0A8FC8DE047AB46AA0021084601F0EF
:104E8000E7F9BDF81C010028F4D147A14948FEF715
:104E90006FFE494804F0BEFB0546484890F80008FC
:104EA00000BB464890F8010803281BD1434890F8FE
:104EB0000208012816D1414890F80308072811DCA0
:104EC0003E4890F80318082000F00EFC044624B970
:104ED0003B493848FEF74CFE56E03A493548FEF764
:104EE00047FE51E0354890F80108102815D13348A5
:104EF00090F8033890F8001800F60402082000F03B
:104F000061FC044624B92E492A48FEF731FE3BE0F5
:104F10002C492848FEF72CFE36E0284890F8010876
:104F200011282DD14FF4807103A8FEF716FE2348F7
:104F300090F8020803A9CDE90010204890F8033842
:104F400090F8001800F60402082000F0EBFB04467D
:104F50008CB91A4890F80218174A03A800F090FB81
:104F600005462A4614491348FEF72DFE16A111489E
:104F7000FEF7FEFD03E013490E48FEF7F9FD03E0DE
:104F800012490C48FEF7F4FD4FF480710A48FEF711
:104F9000E4FD70E70600000002240C00026D0C0026
:104FA000008000301C7800205B5D2C4932432C3897
:104FB0002C000000BC4A0020BC720020BC6A00200B
:104FC000470000202E0000200D0A000016000020DF
:104FD000C4B000240023292249494A48FBF719FBA1
:104FE0008DE043AB42AA0021084601F031F9BDF83B
:104FF0000C010028F4D144A14648FEF7B9FD46480B
:1050000004F008FB0546454890F8000900BB4348FA
:1050100090F8010903281BD1404890F802090128A3
:1050200016D13E4890F80309072811DC3B4890F858
:105030000319092000F058FB044624B938493548C3
:10504000FEF796FD56E037493248FEF791FD51E0F4
:10505000324890F80109102815D1304890F80339EA
:1050600090F8001900F60412092000F0ABFB04468A
:1050700024B92B492748FEF77BFD3BE02949254809
:10508000FEF776FD36E0254890F8010911282DD16C
:105090004FF4807102A8FEF760FD204890F80209E5
:1050A00002A9CDE900101D4890F8033990F80019C5
:1050B00000F60412092000F035FB04468CB91748AD
:1050C00090F80219144A02A800F0DAFA05462A46B6
:1050D00011491048FEF777FD13A10E48FEF748FD71
:1050E00003E010490B48FEF743FD03E00F49094870
:1050F000FEF73EFD4FF480710748FEF72EFD70E786
:1051000000900030887800205B5D2C4932432C39B8
:105110002C000000BC4A0020BC730020BC6A0020A8
:10512000470000202E0000200D0A0000160000207D
:105130000EB500204949C86600F040FA00F070FA48
:1051400000F0DAFB00F008FA4548FBF797FF454905
:105150000320FBF7AFFF44490420FBF7ABFF4349B3
:105160000520FBF7A7FF42490620FBF7A3FF4149B3
:105170000720FBF79FFF40490820FBF79BFF3F49B3
:105180000920FBF797FF3E490A20FBF793FF3D49B3
:105190000B20FBF78FFF3C490C20FBF78BFF032014
:1051A000FBF796FF0420FBF793FF0520FBF790FF2A
:1051B0000620FBF78DFF0720FBF78AFF0820FBF78F
:1051C00087FF0920FBF784FF0A20FBF781FF0120FE
:1051D000FBF77EFF0C20FBF77BFF02222B492C48BC
:1051E000FAF7F6FF052200212948FBF744F80522CB
:1051F00001212748FBF73FF8052202212448FBF74D
:105200003AF8052203212248FBF735F8052204214C
:105210001F48FBF730F8052211461D48FBF72BF815
:10522000052206211A48FBF726F80522072118480F
:10523000FBF721F805221F211548FBF71CF8FEF7A4
:10524000F9FEFEF7F9FE08E002A800210B46022253
:10525000CDE90010084601F0D5FAF5E700800340DB
:1052600000E0003115970000179700001997000023
:105270001B9700001D9700001F970000219700005A
:105280002397000025970000279700000020003199
:1052900084000020A6B0802106A8FEF75EFC63A073
:1052A000006805900D2004900823002211464FF459
:1052B000165004F057FA5E4A4FF400615D4804F05E
:1052C000E1FA00221F215C48FBF79DF8ACE004F0F6
:1052D00041FA022879D15948008800285FD000BFE0
:1052E00000BFFAF75FFF064600BF00BF53480288C1
:1052F00053495448FEF718FC50480088524908802A
:1053000000204E49088000BF00BF3046FAF74EFF2C
:1053100000BF00BF002405A94A48FEF769FC06A9A2
:1053200041F8240008E0601CC4B205A90020FEF783
:105330005FFC06A941F8240006A850F824000028C4
:10534000F1D1002500BF20E0601EA84216D106A9B9
:1053500051F825009DF81010FEF716FC074604A929
:10536000FEF723FC20B139493948FEF701FC0AE079
:1053700006A951F8250004F06BF904E006A951F8DC
:10538000250004F065F9681CC5B2A542DCDB4FF4CA
:1053900000512C48FEF7E1FB00202B49088004F067
:1053A000B1FA012837D12A48FEF7F8FBF8B10A21F3
:1053B0002748FEF7E9FBD0B12548FEF7EFFB07468B
:1053C0003946234804F07CFA09E011E003A80021E3
:1053D0000A230A46CDE90010084601F013FA04F04A
:1053E00091FA0128F2D141031948FEF7B6FB12E009
:1053F00008E003A800210A230A46CDE90010084668
:1054000001F000FA04F0A6F90228F2D1084A81025C
:10541000084804F037FA03A800210A230A46CDE918
:105420000010084601F0EEF951E700000A00000004
:105430006D9A0000BC020020840000208200002041
:10544000BC0A0020BC2A0020800000205D00002053
:10545000BC4A00207047000010B5002400BF00BF08
:10546000FAF7A0FE044600BF00BF0E480E490860D0
:105470000E480F4908600F480F4908600F4810494F
:105480000860104810490860104811490860114828
:105490001149086000BF00BF2046FAF787FE00BF31
:1054A00000BF10BDDF54000018010020E1540000CF
:1054B0001C010020E354000020010020555400008E
:1054C00024010020DD54000028010020E5540000E4
:1054D0002C010020E9540000300100207047704783
:1054E000704770477047000010B501211648FBF760
:1054F0000AFA012114486C30FBF705FA0121124821
:10550000D830FBF700FA01211048FBF7FCF9012124
:105510000E486C30FBF7F7F901210C48D830FBF747
:10552000F2F901210A48FBF7EEF9012108486C3035
:10553000FBF7E9F901210648D830FBF7E4F901212E
:105540000448FBF7E0F910BDBC7400200076002091
:10555000447700208878002070B51448006814490A
:10556000B1FBF0F31946481EB0F1807F00D31BE079
:10557000481E4FF0E022506150170F22002807DA32
:105580001407260E0B4C00F00F052D1F665503E087
:105590001407250E084C255400BF00204FF0E022D0
:1055A00090610720106100BF70BD0000349C0000B6
:1055B00000E1F50518ED00E000E400E010B5002082
:1055C000FDF76BF90120FDF768F90220FDF765F999
:1055D0000320FDF762F90420FDF75FF90520FDF7D0
:1055E0005CF90620FDF759F90720FDF756F9082068
:1055F000FDF753F90920FDF750F90A20FDF74DF9A1
:105600000B20FDF74AF90C20FDF747F90D20FDF7B7
:1056100044F90E20FDF741F90F20FDF73EF910BDCA
:1056200010B500F01FF800F019F810BD10B50024F7
:1056300000BF00BFFAF7B6FD044600BF00BF10214F
:10564000054800F04FF900BF00BF2046FAF7AEFD55
:1056500000BF00BF10BD0000FCC8002010B5FFF760
:10566000E5FF10BD10B500200249086000F004F805
:1056700010BD0000080100207047002070470000A6
:1056800070B503460C460020002127E05D5C154EF6
:1056900006EB15152D7802F8015B5D5C05F00F0532
:1056A000755D02F8015B851CE8B2651E8D420ED166
:1056B0002C2502F8015B0D2502F8015B0A2502F892
:1056C000015B002502F8015B051DE8B204E020251E
:1056D00002F8015B451CE8B24D1CE9B2A142D5DBE2
:1056E00070BD0000C49B000070B504460D460A2C36
:1056F00014DA082D12DA04F12003DAB24FF0405325
:1057000003EB043104EBC40303EB4303044E06EB49
:1057100083002B46FAF77DFF002070BD0120FCE7D7
:10572000BC7400202DE9FF470446884691461D467B
:10573000DDE90C6775B9002004EBC40101EB410100
:105740001F4A009002EB81003B4632464146FBF780
:1057500028F80FE0002004EBC40101EB4101184AD6
:10576000CDE90067029002EB81002B464A46414694
:10577000FBF75DF808E003A800210A230A46CDE9FB
:105780000010084601F03EF804EBC40101EB4101B2
:105790000B4A02EB8100FBF79FF80128EBD004EBEA
:1057A000C40101EB4101064A02EB8100FBF794F8CA
:1057B00018B9002004B0BDE8F0870320FAE7000024
:1057C000BC740020FEB504460D4616461F46002058
:1057D00004EBC40101EB4101154A009002EB81008A
:1057E0003B4632462946FAF797FF08E002A8002117
:1057F0000A230A46CDE90010084601F003F804EB3D
:10580000C40101EB41010A4A02EB8100FBF764F895
:105810000128EBD004EBC40101EB4101044A02EB87
:105820008100FBF759F808B90020FEBD0320FCE712
:10583000BC7400207047000010B50248FBF713F954
:1058400010BD0000BC74002070477047704770475F
:105850007047704710B50248FBF705F910BD00000E
:105860002875002010B50248FBF7FDF810BD0000B8
:105870009475002010B50248FBF7F5F810BD000044
:105880000076002010B50248FBF7EDF810BD0000CF
:105890006C76002010B50248FBF7E5F810BD00005B
:1058A000D876002010B50248FBF7DDF810BD0000E7
:1058B0004477002010B50248FBF7D5F810BD000072
:1058C000B077002010B50248FBF7CDF810BD0000FE
:1058D0001C78002010B50248FBF7C5F810BD000089
:1058E0008878002030B505460C462246002128461F
:1058F00000F026F830BD00000D480E490160014659
:10590000416000218160C160016141618161C161CB
:1059100001620163C162416207498163C1634FF45F
:105920001051016441640146044A1160704700004F
:10593000B4A4002048454150FCA4002004010020EC
:105940002DE9F04103460C4617460FB9BDE8F0813A
:1059500003B9FBE70025002202E02D022543521C7B
:10596000042AFAD3384603F0030C1946BCF1000FA1
:1059700008D0624603E001F8014B401E521C08B1FA
:10598000042AF8D30E4601E020C6001F0428FBD2EB
:10599000314602E001F8014B401E0028FAD100BF59
:1059A000D4E7704710B50348006810B1014800689B
:1059B000804710BD2401002070B5044600F0C2F8F5
:1059C000002048490870484908704849087048490B
:1059D00008604849086048490870484908704849C3
:1059E00008704849086048490860484908604849C3
:1059F0000870484800680A21B0FBF1F04649086089
:105A00004648006858B14648056845B143480668AD
:105A100003E0761E002028602D1D002EF9D1002005
:105A200040490860404908604049086040490860B2
:105A30004049086040490860404908604049087092
:105A400001F01EFF01F0FEFF204601F0F5F820886E
:105A500000B170BD204601F0B5FC208800B1F8E728
:105A6000204601F0BBFC208800B1F2E7204601F09F
:105A70007DFD208800B1ECE7204601F031FF208851
:105A800000B1E6E7204602F055F9208800B1E0E7D2
:105A9000204602F055FC208800B1DAE7204601F0EC
:105AA000FDFB208800B1D4E7204601F015FA2088DC
:105AB00000B1CEE7204603F0BBFB208800B1C8E769
:105AC000204602F0A3FB208800B1C2E7204603F085
:105AD0000BFC208800B1BCE700F0D4FFFFF761FFAA
