:020000040000FA
:1000000060F70020013E0000FF3E0000013F0000BD
:10001000033F0000053F0000073F00000000000014
:10002000000000000000000000000000093F000088
:100030000B3F0000000000009F410000CD61000068
:10004000113F0000113F0000113F0000113F000070
:10005000113F0000113F0000113F0000113F000060
:10006000113F0000113F0000113F0000113F000050
:10007000113F0000113F0000113F0000113F000040
:10008000113F0000113F0000113F0000113F000030
:100090002F2E0000152F0000113F0000113F00001F
:1000A000113F0000113F0000113F0000113F000010
:1000B000113F0000113F0000113F0000113F000000
:1000C000113F0000113F0000414D0000654D000050
:1000D000754D0000854D0000954D0000A54D0000B8
:1000E000B54D0000C54D0000D54D0000E54D0000A8
:1000F000514D0000534D0000554D0000574D00007C
:10010000594D00005B4D0000113F0000113F000001
:10011000113F0000113F0000113F0000113F00009F
:10012000113F0000113F0000113F0000113F00008F
:10013000113F0000113F0000113F0000113F00007F
:10014000113F0000113F0000113F0000113F00006F
:10015000113F0000113F0000113F0000113F00005F
:10016000113F0000113F0000113F0000113F00004F
:10017000113F0000113F0000113F0000113F00003F
:10018000113F0000113F0000DFF80CD003F0D0FE5B
:1001900000480047D191000060F7002072B6704718
:1001A00062B67047EFF3108072B6704780F3108824
:1001B000704730BF704720BF7047B0FA80F070477B
:1001C00090FAA0F0B0FA80F0704790FAA0F0704773
:1001D0002DE9F04104460D4617464FF000082E4623
:1001E0002560277100BF00BF08E00021304603F002
:1001F00069FD361D08F1010000F0FF08B8F1200F7D
:10020000F3DB2079D0B1012809D002282FD1216851
:1002100001F180004FF0FF3103F024FD28E0216858
:1002200001F180004FF6FF7103F034FD216801F108
:1002300084004FF6FF7103F02DFD19E0216801F1F4
:100240008000FF2103F03EFD216801F18400FF21C1
:1002500003F038FD216801F18800FF2103F032FD31
:10026000216801F18C00FF2103F02CFD00E000BFAC
:1002700000BFBDE8F0812DE9F04105460C46164669
:10028000202C07DA2F6807EB84073146384603F045
:10029000E9FC00BFBDE8F08170B504460D46207949
:1002A000B8B1012808D002282ED1216801F1A000A0
:1002B000294603F0D7FC28E0A9B2226802F1A00089
:1002C00003F0E8FC290C226802F1A40003F0E2FC30
:1002D0001BE0E9B2226802F1A00003F0F3FC216800
:1002E00001F1A400C5F3072103F0ECFC216801F142
:1002F000A800C5F3074103F0E5FC290E226802F1CE
:10030000AC0003F0DFFC00E000BF00BF70BD70B5C3
:10031000044600252079C0B1012808D0022830D138
:10032000216801F1900003F09FFC05462AE0216856
:1003300001F1900003F0B0FC0543216801F1940045
:1003400003F0AAFC45EA00451CE0216801F1900099
:1003500003F0BAFC0543216801F1940003F0B4FCFA
:1003600045EA0025216801F1980003F0ADFC45EA5B
:100370000045216801F19C0003F0A6FC45EA0065F8
:1003800000E000BF00BF284670BD70B504460025E0
:100390002079C0B1012808D0022830D1216801F1AC
:1003A000A00003F061FC05462AE0216801F1A000ED
:1003B00003F072FC0543216801F1A40003F06CFC1A
:1003C00045EA00451CE0216801F1A00003F064FC4F
:1003D0000543216801F1A40003F05EFC45EA002515
:1003E000216801F1A80003F057FC45EA00452168A7
:1003F00001F1AC0003F050FC45EA006500E000BFED
:1004000000BF284670BD2DE9F04105460C46164652
:100410002879002833D0012816D002284AD129682B
:1004200001F1A00003F020FC07461EB90120A04006
:10043000874302E00120A0400743296801F1A000A2
:10044000394603F00FFC36E02868A030211100EB9C
:100450008108404603F020FC07462EB904F00F0146
:1004600001208840874305E004F00F010120884007
:10047000384387B23946404603F00CFC1BE028683D
:10048000A030E11000EB8108404603F01DFC074658
:100490002EB904F0070101208840874305E004F0ED
:1004A0000701012088403843C7B23946404603F06F
:1004B00009FC00E000BF00BFBDE8F0812DE9F0417C
:1004C00005460C461746D5F80080BFB1012F02D073
:1004D000022F34D125E0012221462846FFF793FF61
:1004E000286800EB8408404603F0EEFB064646F021
:1004F00004063146404603F0E5FB21E00022214698
:100500002846FFF780FF286800EB8408404603F088
:10051000DBFB064646F004063146404603F0D2FBBC
:100520000EE0286800EB8408404603F0CDFB064649
:1005300026F004063146404603F0C4FB00E000BF4D
:1005400000BFBDE8F0812DE9F04105460C462F685B
:10055000202C0BDA07EB8407384603F0B5FB064680
:1005600046F008063146384603F0ACFBBDE8F081A2
:100570002DE9F04105460C462F68202C0BDA07EBDD
:100580008407384603F0A0FB064626F008063146ED
:10059000384603F097FBBDE8F08170B504460E467F
:1005A000012000FA06F52079B8B1012808D0022808
:1005B0002CD1216801F18000294603F053FB26E08D
:1005C000216801F18000294603F064FB290C2268B0
:1005D00002F1840003F05EFB19E0216801F1800064
:1005E000294603F06FFB290A226802F1840003F018
:1005F00069FB290C226802F1880003F063FB290ED5
:10060000226802F18C0003F05DFB00E000BF00BF38
:1006100070BD2DE9F04704460F4690461D462E4614
:1006200003F018FB81466C21204603F07CFB276019
:100630004FEA48006060002340220621206803F052
:1006400045FB012340220621206803F03FFBC6F34F
:10065000800380220721206803F038FBC6F34003A3
:1006600002220121206803F031FB06F00103012280
:100670000021206803F02AFBD4E9002102F10C00DC
:1006800003F020FBD4E9002102F11C0003F01AFB67
:10069000484603F0E3FABDE8F0872DE9F047044649
:1006A0000E46154698464746102D33DA95B303F0AB
:1006B000D1FA81466C21204603F035FB306820F4E6
:1006C000F07040EA451020607068606000234022AE
:1006D0000621206803F0FAFA01234022062120684F
:1006E00003F0F4FAC7F3800380220721206803F0A7
:1006F000EDFAC7F3400302220121206803F0E6FA75
:1007000007F0010301220021206803F0DFFA4846C8
:1007100003F0A4FABDE8F0872DE9F84304460D463E
:1007200016461F46DDF8208003F094FA8146207BB0
:1007300008B901202073012084F86A006800A060D5
:1007400000206062A661E7612062012084F8340025
:1007500084F8148094F85400012802D184F86900C8
:1007600005E0012320220521206803F0AFFA94F868
:100770006800012805D1002308220321206803F026
:10078000A5FA2168081D03F09FFA00909DF800006B
:100790000090204602F06AF9484603F05FFABDE88F
:1007A000F8832DE9F84304460D4616461F46DDF84A
:1007B000208003F04FFA8146207B08B90220207385
:1007C000022084F86A006800A06001206062A662CE
:1007D000E76200202063012084F8340084F814804C
:1007E00094F85400012802D184F8690005E001233F
:1007F00020220521206803F069FA94F86800012896
:1008000005D1002308220321206803F05FFA216844
:10081000081D03F059FA00909DF800000090204652
:1008200002F024F9484603F019FABDE8F8832DE9EF
:10083000F84F04460E4617461D46DDE90B8ADDF8E3
:100840002890022084F83400B8F1000F42D0002D27
:1008500040D003F0FFF98346207B08B903202073C2
:10086000032084F86A007000A06000206062A76125
:10087000E5612062C4F82890C4F82C802063012030
:1008800084F8340084F814A094F85400012802D1AC
:1008900084F8690005E0012320220521206803F087
:1008A00015FA94F86800012805D1002308220321D5
:1008B000206803F00BFA2168081D03F005FA009088
:1008C0009DF800000090204602F0D0F8584603F052
:1008D000C5F900BFBDE8F88F014691F834007047B4
:1008E0002DE9F04104460E4603F0B4F90746A6632D
:1008F000384603F0B3F900BF94F83450012DFBD013
:100900002846BDE8F08170B504460D46A06BB0B135
:10091000A06BA84203D9A06B401BA0630FE003F0BB
:1009200099F90646032084F834000020207384F8E7
:100930006900304603F092F90020A06300BF70BD4B
:100940002DE9F04104460D46164603F083F90746AB
:10095000E563266400206064384603F07FF9BDE853
:10096000F0812DE9F04104460D46164603F072F978
:100970000746A564E66400202065384603F06EF95A
:10098000BDE8F081022902D90222826500E081657A
:10099000704770B504460D4603F05CF90646E56500
:1009A000304603F05BF970BD70B5044603F052F9B0
:1009B0000546012304220221206803F087F9012063
:1009C00084F86000284603F049F9204602F04EF80A
:1009D00070BD70B5044603F03DF9054600230422BE
:1009E0000221206803F072F9002084F86000284694
:1009F00003F034F970BD10B5044694F8600028B1D6
:100A0000012304220221206803F060F910BD70B5B3
:100A100004460D46FE2000EA4506216801F11C004F
:100A2000314603F04FF970BD10B50446D4E90021FA
:100A300002F11C0003F046F910BD10B50446216810
:100A400001F10C0001231A46002103F03FF910BD0B
:100A500010B50446216801F10C000023012219465B
:100A600003F034F910BD2DE9F8430446012721684D
:100A7000081D03F029F900909DF8000000F007011F
:100A8000002971D1C0101D286ED2DFE800F0F30FED
:100A900010514252883A97BCCBF4F1F0EFEEEDECF6
:100AA000EBEAE9E8E7E6E5E4E3E2410000BF002322
:100AB00020220521206803F009F9226802F10800CC
:100AC000A16803F0FFF8216801F10800012200216C
:100AD000636A03F0FBF8606A10B90020206201E04D
:100AE0000020206394F8690010B1002084F86900A8
:100AF000207B94F86A10884202D094F86A00207330
:100B0000EBE1012320220521206803F0DFF8E4E176
:100B1000E3E1012310220421206803F0D7F802202A
:100B200084F83400002020732046FFF764FFD4E1EE
:100B300000BFD4E9071088420AD2236A5A1C2262F5
:100B4000A269D15C226802F1080003F0BBF825E03D
:100B5000207B032809D10120606201232022052186
:100B6000206803F0B3F819E09DE100202073207D98
:100B700000F0010584F868504DB9012310220421CA
:100B8000206803F0A3F82046FFF735FF03E0204676
:100B900001F0B1FF0027002084F834009DE101231B
:100BA00010220421206803F091F8022084F8340018
:100BB000002020732046FFF71EFF8EE1E06A012827
:100BC00006D9012304220221206803F07FF819E0EE
:100BD000E06A012806D1002304220221206803F0E4
:100BE00075F80FE0012304220221206803F06EF85B
:100BF000012310220421206803F068F8002084F803
:100C00003400207369E1012310220421206803F0DD
:100C10005DF8022084F83400002020732046FFF79E
:100C2000EAFE5AE1216801F1080003F04DF801469F
:100C3000226B501C2063A06A8154D4E90B01401E32
:100C4000814205D3002304220221206803F03EF8EC
:100C500043E1C4E028E10FE10DE1D0E0CEE0CCE0DB
:100C60007EE029E05BE028E05AE03AE03EE039E04F
:100C70003DE000E019E1216801F1080003F024F8EB
:100C8000226BA16A8854207D00F0010584F8685029
:100C90004DB9012310220421206803F017F82046E3
:100CA000FFF7A9FE03E0204601F025FF0027002002
:100CB000207384F8340010E100BF012304220221D4
:100CC000206803F003F80020207384F8540094F89F
:100CD000690028B1012320220521206802F0F6FFD7
:100CE000FBE000BF012084F8690000BF00BF0420C2
:100CF000207300202065206120220521206802F059
:100D0000F3FF40B1002320220521206802F0DEFF1E
:100D1000012084F86900012084F85400DDE000BF60
:100D2000A06C90B1D4E9131088420ED2216801F171
:100D3000080002F0C9FF0646226D511C2165A16C16
:100D40008E54216906EB01202061D4E913108842FA
:100D500005D3002304220221206802F0B7FFBCE083
:100D6000207B042827D1A16D206D884201D1206904
:100D70006064E06DC0B1B4F8500082B22046E36D0B
:100D8000A16C98478046B8F1000F03D12046FFF7C9
:100D900032FE08E0002304220221206802F096FFC0
:100DA000002084F860000BE0012304220221206867
:100DB00002F08CFF04E0002060642046FFF71BFE79
:100DC000002084F8540094F8690028B101232022FF
:100DD0000521206802F07AFF002020737DE00020CA
:100DE0002073606494F85400012802D1022084F832
:100DF00054002046FFF7FFFD6FE000BF00BF9DF8E5
:100E00000000A82815D105202073002020610120B2
:100E100084F8540020220521206802F065FF40B1CB
:100E2000002320220521206802F050FF012084F8D1
:100E30006900D4E91010884206D3216801F1080046
:100E4000FF2102F03FFF09E0636C5A1C6264E26B11
:100E5000D15C226802F1080002F034FFD4E91010DE
:100E6000884207D3002304220221206802F02EFFCB
:100E70000020606431E000BF002060640123042290
:100E80000221206802F022FF002084F8540094F828
:100E9000690028B1012320220521206802F016FFF5
:100EA0000020207319E000BF00BF0023202205218D
:100EB000206802F00BFF00202073606494F8340077
:100EC000012802D1022084F8340094F8540001284B
:100ED00002D1022084F8540000BF00BF2FB10023CC
:100EE00008220321206802F0F1FE2168081D02F0AB
:100EF000EBFE0090BDE8F88310B50446216801F1CF
:100F00001000542102F0DEFE10BD70B504460D46FF
:100F100002F0A0FE064605F0010038B1216801F19B
:100F2000100001231A46002102F0D0FE05F0020055
:100F300038B1216801F1100001230222194602F0A4
:100F4000C5FE304602F08AFE70BD70B504460D46FF
:100F500002F080FE064605F0010038B1216801F17B
:100F6000100000230122194602F0B0FE05F0020035
:100F700038B1216801F1100000230222012102F0A2
:100F8000A5FE304602F06AFE70BD70B5044602F060
:100F900061FE0546216801F1100000234022062170
:100FA00002F094FE284602F059FE70BD70B504466A
:100FB00002F050FE0546216801F110000123402295
:100FC000062102F083FE284602F048FE70BD70B58F
:100FD000044602F03FFE0546216801F1100001239E
:100FE0008022072102F072FE284602F037FE70BD13
:100FF00070B5044602F02EFE0546216801F110008E
:1010000000231022042102F061FE284602F026FE91
:1010100070BD70B5044602F01DFE0546216801F161
:10102000100001231022042102F050FE284602F095
:1010300015FE70BD70B505460024296801F1100049
:1010400002F042FE064606F0080008B144F0010432
:1010500006F0200008B144F00204286802F034FED3
:10106000064606F0080008B144F00404204670BDAE
:10107000416670470146486E7047000070B50546EE
:10108000324805604FF0FF3100680C3002F0EAFD95
:101090004FF0FF312D480068243002F0E3FD0024BA
:1010A00005E000202A4941F82400601CC4B2202C2D
:1010B000F7DB70BD264A42F82010704710B50024B7
:1010C000224800682C3002F0CFFD0446204610BDB7
:1010D00070B504461D480068203002F0C5FD054685
:1010E0000120A0400543294618480068203002F03E
:1010F000B9FD70BD70B50446012000FA04F529461B
:1011000012480068243002F0ADFD70BD70B50F4884
:1011100000682C3002F0A8FD0546002412E00120F2
:10112000A04000EA05065EB1094850F8240018B94D
:101130002046FFF7DFFF03E0054951F82400804710
:10114000601CC4B2202CEADB70BD0000DC01002072
:1011500014E500202DE9F84F04460D4616461F46BB
:10116000002C3ED0072F3CDCB6F5005F39DAF1B237
:1011700005F1080002F0A6FD06F47F4047EA601181
:1011800005F10C0002F09EFD2560216801F10800C8
:1011900002F09AFD8346216801F10C0002F094FDF3
:1011A000814609F0F80A4BEA4A1B09F00709216851
:1011B00001F1100002F088FD00F002080CE0216847
:1011C000081D02F081FD0090216801F1100002F07D
:1011D0007BFD00F0020800BFB8F1000FEFD1002046
:1011E0002071BDE8F88F2DE9F04104460E46174600
:1011F000ACB1A6B19FB100250FE000BF216801F19D
:10120000100002F061FD00F00108B8F1000FF5D008
:10121000715D206802F056FD6D1CBD42EDD3BDE846
:10122000F0812DE9F04104460E4617460025ECB149
:10123000E6B1DFB1216801F1100002F045FD00F0D8
:101240000108B8F1000F11D000BF715D206802F0F5
:1012500039FD6D1C216801F1100002F035FD00F030
:101260000108B8F1000F01D0BD42EED32846BDE819
:10127000F0812DE9F04704460F469046002634B32E
:101280002FB3B8F1000F22D000BF216801F1100088
:1012900002F01AFD054621792943217105F0020962
:1012A00010E02168081D02F00FFDB855761C21687A
:1012B00001F1100002F008FD054620792843207155
:1012C00005F00209B9F1000F01D04645E9D33046D7
:1012D000BDE8F0872DE9F04104460D46A4B19DB16B
:1012E00000260EE000BF216801F1100002F0ECFCC6
:1012F00000F00107002FF6D0A95D206802F0E2FCA3
:10130000761CA85D0028EDD1BDE8F0810146FF20E4
:1013100021B10A79C2F3820000220A7170470000ED
:10132000F0B50346C2F38F060C460D46002005E0DB
:10133000FA4F57F8237044F82070401CB042F7D39E
:1013400002F00307D01B04E0F44F17F823702F546A
:10135000401C9042F8D3F0BD00BFF049E03101EBF2
:101360000011C98821F02002EC49E03101EB0011A5
:10137000CA8000BF00BFE949E03101EB0011C98814
:1013800041F08002E549E03101EB0011CA8000BF65
:10139000704700BFE149E03101EB0011498821F0BD
:1013A0001002DE49E03101EB00114A8000BF00BFAE
:1013B000DA49E03101EB0011498841F04002D74998
:1013C000E03101EB00114A8000BF704710B50446C0
:1013D0000020D349087048708870C870D1480470E4
:1013E000084684710420D049C872CD49887902F03A
:1013F0003BF900BFC9482038407840F04000C74959
:101400002039487000BF0220C549C87010BDC749C7
:1014100008607047C6490860704710B5044601204F
:1014200004EB440101EBC401BF4A02EB8101887265
:10143000204601F0A6F910BD10B504462046FFF77E
:10144000A8FF10BD00BFB549E03101EB001149888C
:1014500041F00802B149E03101EB00114A8000BFC0
:10146000704710B50446012004EB440101EBC401B0
:10147000B04A02EB81018872204601F075F910BD77
:1014800010B504462046FFF767FF10BD00BFA34913
:10149000E03101EB0011C98841F010029F49E031B1
:1014A00001EB0011CA8000BF704700BF9B48203885
:1014B000408A40F4807199482038418200BF7047CB
:1014C00070B50546984C00202070A0720420E07290
:1014D00000202073A06125810820606202F027FAB5
:1014E00070BD70B506460D468F4CA661E5610020C3
:1014F0002062A0622189E069884202D92089606265
:1015000000E06562884802F025FA70BD70B50646B5
:101510000D46854CA661E56100202062A06221890C
:10152000E069884202D92089606200E065627E48F5
:1015300002F098FA70BD2DE9FC5F07468946164611
:101540001D46DDE90CABDDF83C8001200190400236
:10155000009007EB470000EBC700734901EB8004E4
:101560006F488079C8B9B8F1010F0ED0B8F1020FF9
:1015700003D0B8F1030F0CD103E04FF400700090DA
:101580000AE04FF48060009006E04FF48060009025
:1015900002E00020019000BF1BE061488079012833
:1015A00017D1B8F1010F0CD0B8F1020F03D0B8F188
:1015B000030F0AD102E04020009009E04020009093
:1015C00006E040F2FF30009002E00020019000BFF2
:1015D00000BF0098854201DD00200190AE4201DA93
:1015E00000200190019801281CD1B6EB450F01DBCA
:1015F000607001E0002060702770A4F8049066809D
:10160000258184F814A084F806B00E98E0710020BB
:10161000A072E07284F80C80A061109820612046CE
:1016200002F0A0F8BDE8FC9F2DE9FC5F0746894663
:1016300016461D46DDE90CABDDF83C80012001902B
:101640004002009007EB470000EBC700394901EB6F
:10165000800433488079C8B9B8F1010F0ED0B8F1D1
:10166000020F03D0B8F1030F0CD103E04FF4007068
:1016700000900AE04FF48060009006E04FF4806034
:10168000009002E00020019000BF1BE02448807918
:10169000012817D1B8F1010F0CD0B8F1020F03D017
:1016A000B8F1030F0AD102E04020009009E0402089
:1016B000009006E040F2FF30009002E00020019030
:1016C00000BF00BF0098854201DD00200190AE42BE
:1016D00001DA00200190019801281CD1B6EB450FDA
:1016E00001D3607001E0002060702770A4F80490BE
:1016F0006680258184F814A084F806B00E98E07105
:101700000020A072E07284F80C80A0611098206123
:10171000204602F097F8BDE8FC9F0000203004400E
:1017200094E50020E8010020A4E50020E00100206D
:10173000E401002080E600202DE9FC4106460F462A
:10174000154606EB460000EBC600FE4901EB80049F
:10175000A761E56100202062A06235B12089A8421E
:1017600002D82089606200E06562217BE069CDE9F2
:101770000010E379A2792078A16901F040FCBDE86E
:10178000FC812DE9FE43064688461546012706EBF7
:10179000460000EBC600EC4901EB8004002E3DD072
:1017A000B8F1000F3AD06078012800D102272670E6
:1017B000C4F81880E56100202062A062207B022826
:1017C00007D16088A84201D365621BE0608860622F
:1017D00018E0207B032809D120897843A84203D848
:1017E0002089784360620DE065620BE0207B012870
:1017F00008D120897843A84203D8208978436062C1
:1018000000E06562227BE169606ACDE90021029017
:10181000E379A2792078A16901F031FCBDE8FE836B
:1018200010B50446204601F05EFF10BD00BFC7485A
:101830000078704700BFC548407840F08000C34939
:10184000487000BF704700BFC048407820F080005B
:10185000BE49487000BF704710B50446204600F0EE
:1018600062FF10BD014600BFB94800EB0110C088FF
:10187000C0F34000704700BFB449C98801228240CC
:101880009143B24AD18000BF704700BFAF49098978
:10189000012282409143AD4A118100BF704700BFD1
:1018A000AA49C9880122824092B21143A74AD18035
:1018B00000BF704700BFA54909890122824092B24A
:1018C0001143A24A118100BF704700BF9F48C088E2
:1018D00040F001009D49C88000BF704700BF9B4891
:1018E000C0884FF6FE7108409849C88000BF704715
:1018F000704710B500209749087048708870032021
:10190000C87004209049C87200209249087300BF33
:101910008E484078C0F3001010B10020887102E0BA
:1019200001208C49887100208B49087048704880DC
:101930008880C8804020FFF7C3FD08218648FFF754
:10194000D0FD10BD70B504460D4684480068C068DF
:1019500058B1824800682A462146C3687E489847A5
:10196000012800D170BD0020FCE70020FAE770B527
:1019700004460D4679480068C06858B17748006849
:101980002A462146C36874489847012800D170BD93
:101990000020FCE70020FAE70020704710B5012482
:1019A0006D48C088002848D16A48C078032844DDC3
:1019B0006948408850B101283CD16748007800F060
:1019C0001F0010B900206349087335E062480078B1
:1019D00000F01F0002282CD15F48007940B35E4818
:1019E000007900F0800098B100205B49097901F08E
:1019F0007F0101EB410202EBC101534A02EB81017D
:101A000088725549097901F07F00FFF7C2FC10E0A8
:101A100000205149097901EB410202EBC101494A19
:101A200002EB810188724C490879FFF795FC00E0D0
:101A3000012401E0002400BF00E00024204610BD86
:101A400010B501244448C08800285DD14248408830
:101A500098B1012802D0022853D146E03E480078D0
:101A600000F01F0038B93B48C078032803DD01208F
:101A70003849087300E0002445E03748007800F05A
:101A80001F0002282FD13448007960B33148C07854
:101A9000052828D13048007900F0800098B1012055
:101AA0002D49097901F07F0101EB410202EBC101EF
:101AB000254A02EB810188722749097901F07F00EC
:101AC00000F05FFE10E001202349097901EB41029B
:101AD00002EBC1011B4A02EB810188721E490879A1
:101AE00000F042FE00E000240DE01B48007800F00A
:101AF0001F0020B91848007908B9012400E000242B
:101B000001E0002400BF00E00024204610BD10B515
:101B100002461048C078042849D10F48408880B94F
:101B20000D48808868B90C48C08802283DD10A4811
:101B3000007800F01F0098B1012817D002282ED19C
:101B40001AE032E080E60020A4E5002000300440E6
:101B50000031044094E50020EC010020E401002065
:101B60000120F84B1880184610601AE00020F54B51
:101B700018801846106014E0F348808800EB40039A
:101B800003EBC000F14B03EB8000807A08B1012029
:101B900000E00020EB4B18801846106001E00020A8
:101BA00010BD00BF022008606EE00020F8E7E848A2
:101BB000C078052862D1E448408800285CD1E2481A
:101BC000C088022858D1E048007800F01F0020B1FA
:101BD00001280FD0022849D11BE00120D94B1880E1
:101BE000DB48007B1B8843EA4000D64B1880184630
:101BF00010603DE0D4488088D54B5B78984205DC86
:101C00000020D04B18801846106001E00020C7E784
:101C10002EE0CD48007900F08000A0B1CA4B1B79BE
:101C200003F07F0000EB400303EBC003C74C04EB61
:101C300083039B7A0BB1012300E00023C14C238076
:101C40002346136011E0C048808800EB400303EB9B
:101C5000C000C04B03EB8000807A08B1012000E097
:101C60000020B84B18801846106001E0002097E76C
:101C700000BF0220086007E0002091E7B448C07868
:101C8000032801D100208BE7012089E70246AE48F6
:101C9000408860B9AC48808848B9AB48C088012802
:101CA00005D1AB48C01D10600120086070470020BE
:101CB000FCE710B5A4488478A548C078032801D172
:101CC000002010BDA248C471C07804280FD1FCB117
:101CD00005209F49C870A04800680068C0B1084648
:101CE00081799D4800680268204690471CE098482A
:101CF000C078052818D164B904209549C870964861
:101D00000068406820B194480068416820468847D0
:101D10000AE091480068006830B18D4881798E48AA
:101D200000680268204690470120CAE7864880780C
:101D300000F07F01864801708348807800F07F01C1
:101D40008348C078052801D1002070478048C078BA
:101D5000032804D159B104207D4AD07007E07C48A3
:101D6000C078042803D111B90320794AD07001202A
:101D7000EBE770B504460D467548C07803287DDB57
:101D80007148007800F08000802877D16E48007894
:101D900000F01F00002872D16B484088001208280C
:101DA00078D2DFE800F07704431877772855664843
:101DB000807870B96448808858B9684800680068BD
:101DC00038B16648006801682846884720600120CD
:101DD00070BD0020FCE761480068806848B15A493E
:101DE00088785E4909688A68294690472060012002
:101DF000EEE70020ECE75A480078A8B9524880780E
:101E000080B95148808868B954480068406848B132
:101E10004F498879514909684A68294690472060A6
:101E20000120D5E70020D3E70020D1E74A48006829
:101E3000806858B146488379474800682A4602219D
:101E400086680020B04720600120C1E70020BFE77E
:101E500043480078D8B93C488078D0B93A4880885F
:101E6000B8B93D480068806878B1394883793A4804
:101E700000682A4607218668002002E045E00CE061
:101E800008E0B04720600120A2E70020A0E7002082
:101E90009EE701E000209BE737E02B48007800F048
:101EA0001F00012813D12C480068806868B12848B9
:101EB0008379254840880112274800682A468668A9
:101EC0000120B0472060012082E7002080E71E4803
:101ED000007800F01F00022817D11B48408800122C
:101EE00088B11D480068806868B119488379164830
:101EF00040880112184800682A4686680220B047C8
:101F00002060012064E7002062E7002060E770B5F0
:101F100004460D4600260C4840780C2848D2DFE8DD
:101F200000F02933472E470D06382421413B29462E
:101F30002046FFF71EFF0646304670BDFFF7F6FE4F
:101F400038E00000EA010020EC010020A4E50020B8
:101F500094E5002080E60020E4010020E00100205C
:101F6000E8010020FFF7A5FE24E029462046FFF700
:101F70008DFE1FE029462046FFF7C9FD1AE0FFF756
:101F80005FFD06463046D8E7FFF708FD06463046B7
:101F9000D3E7FFF701FD0DE0FE488078FE490872A7
:101FA0000120CAE7FC480830206001202860C4E70F
:101FB0000020C2E700BF0120BFE7FEB505460020B4
:101FC000029001900026F54C05F0030068B1042052
:101FD000E0720020EF490870487048808880C8800F
:101FE0000821EC48FFF77DFABCE0204601F06BFDCC
:101FF000606A082823D10520E072E648007800F0E6
:10200000600028B901A902A8FFF781FF064616E083
:10201000E048007800F06000202805D101A902A85E
:10202000FFF7A5FC06460AE0DA48007800F06000F9
:10203000402804D101A902A8FFF784FC0646002E1F
:102040007DD000BF0020D649887300BFD148C0882A
:1020500000285ED1009000BF4821D148418200BFD6
:102060000420E072CB484078052810D10020009071
:1020700002E00098401C009041F2883100988842AC
:10208000F7D3C5490878C649087000BF00BFC148EA
:102090004078032831D1BF48408802282DD1002044
:1020A000009002E00098401C009041F288310098B6
:1020B0008842F7D3B74880880012012806D002284A
:1020C0000AD003280ED0042815D111E000BF022049
:1020D000B349C87300BF0FE000BF0420B049C87304
:1020E00000BF09E000BF0120AD49C87300BF03E095
:1020F00001F088F900E000BF0AE00020A54908705F
:10210000487048808880C8800821A248FFF7E9F914
:1021100028E000F043FB9F48007800F0800078B191
:102120000620E0729B48C0880199884202D29948F3
:10213000C0880190DDE90110FFF7E8F912E006E040
:102140000720E072DDE90110FFF7CBF90AE0042077
:10215000E07200208F490870487048808880C880ED
:1021600000F030FBFEBD70B506468C4C06F0030057
:10217000B0B1002087490870487048808880C880C6
:1021800088480068C06920B186480068C169304647
:1021900088470420E07208217E48FFF7A2F94DE04D
:1021A000204601F090FCE07A072847D1D4E90710D7
:1021B00088421FD17B480068C06920B17948006817
:1021C000C1693046884700BF00207549887300BF49
:1021D00070490870487048808880C8800420E07288
:1021E00000BF48216E48418200BF08216948FFF7BF
:1021F00078F923E0D4E90710884214D200F0CEFA2F
:10220000D4E90701451A2089A84202D820896062D2
:1022100000E065620020A062236AA269D018616AAA
:10222000FFF75FF90AE000205A49087048704880BB
:102230008880C8800420E07200F0C4FA70BD70B5D8
:102240000546564C05F00300B0B100205149087016
:10225000487048808880C88052480068806920B1F2
:10226000504800688169284688470420E0720821A8
:102270004848FFF736F93CE0E07A062839D1D4E93E
:102280000710884216D2A16AA0690844A061D4E967
:102290000701401A2189884202D32089606203E045
:1022A000D4E90701401A60620020A062204601F0D4
:1022B000D9FB1EE03B480068806920B139480068BE
:1022C0008169284688470020A0622062E061606240
:1022D0000420E07200202F490870487048808880F0
:1022E000C88000BF2E49887300BF08212948FFF726
:1022F000F8F870BD2DE9FC47054688464FF0000907
:1023000005EB450000EBC500274901EB80040026E2
:1023100008F00F0010B14FF00109A8E000BF2348FA
:1023200000EB0510C08800F001000028F5D000BFC8
:102330001E4800EB051000890646A079012857D1F8
:10234000284600F003FA01283DD1E079184901EB55
:102350000011496821F00102154901EB00114A60A2
:1023600000BF00BF114800EB0510C08820F40041F9
:102370000E4800EB0510C18000BFE07900F0EEF9D7
:102380000746A169781A2062D6B1226AA06981182D
:1023900032460FE0EC01002094E50020A4E5002087
:1023A00000300440E401002080E6002000310440B9
:1023B000003204402846FEF7B3FF206A3044206212
:1023C0004FF001094FE0E079F64901EB0011CE60D2
:1023D00000BFE079F34901EB0011496841F00102C7
:1023E000F04901EB00114A6000BF4FF002093AE0EA
:1023F00056B1226AA069811832462846FEF790FF3E
:10240000A662206A30442062207B022825D1206900
:10241000012814D1D4E90710884209D22189A06A81
:10242000884202D24FF001091DE04FF000091AE086
:10243000D4E90710884216D14FF0010913E0D4E91E
:102440000710884202D14FF001090CE0D4E90710CF
:10245000884208D24FF0000905E02189A06A88422D
:1024600001D84FF00109284600F065F900BFB9F125
:10247000000F1DD1D4E90701401A2189884202D3F7
:102480002089606203E0D4E90701401A60620020FD
:10249000A062217BE069CDE90010D4F820C0A769D3
:1024A00007EB0C01E379A279207800F0A8FD0DE09C
:1024B000B9F1010F0AD1BC480068406930B1BA488F
:1024C000226A00684146436928469847BDE8FC8770
:1024D0002DE9FE4305460E460027B84605EB4500AC
:1024E00000EBC500B14901EB800406F0020008B121
:1024F000012735E0A079012809D1E07900F02EF913
:102500008046A069A8EB00002062012728E0606AED
:10251000A062D4E9080108442062207B02281ED171
:10252000D4E90710884201D2002719E0D4E9071046
:10253000884215D1206901280FD1A06A08B9012766
:102540000EE02189A06A884201D1002708E0218994
:10255000A06A884204D2012702E0012700E0012797
:10256000012F0AD190480068006960B38E48006866
:10257000314602692846904725E00020A062D4E950
:102580000701401A2189884202D32089606203E052
:10259000D4E90701401A606200BF207800F0C3F858
:1025A0000028FAD1227BE169606ACDE9002102901E
:1025B000D4F818C0D4F820900CEB0901E379A27983
:1025C000207800F05CFDBDE8FE8302207849C97ADE
:1025D0000143774AD17200BF7648C07875490871C7
:1025E0000620C8707047734800797249C8707047F8
:1025F00010B500206F49C87000BF6D49088100BF49
:1026000000BF0846C08800F00100C88000BF152048
:1026100000F080F8142000F07DF8634800684068FE
:1026200020B1614800684168FF20884710BD2DE94E
:10263000F04105460E46174698460024402F67D0C5
:10264000012E3CD105EB450000EBC500574901EBDD
:102650008004284600F07AF8012823D1206908BBBD
:10266000E069F8B12189E069B0FBF1F201FB1200E9
:10267000C0B900BF00BF504800EB0510408800F013
:1026800001000028F6D1A069A8EB000020624648AE
:1026900000680069E0B3444800683946026928468A
:1026A000904735E000BF444800EB0510408840F0FB
:1026B0000101414800EB0510418000BF28E03EBB0E
:1026C00005EB450000EBC5003C4901EB80042069A7
:1026D000F0B9E069E0B12189E069B0FBF1F201FBFA
:1026E0001200A8B9A069A8EB00002062284600F0FB
:1026F0002DF810B9284600F01EF82B4800684069F4
:1027000030B12948226A006839464369284698470B
:10271000BDE8F08100F01F0201219140284A4309E1
:1027200042F8231070470146234800EB011040880F
:10273000C0F340007047204901EB0011C98821F027
:1027400001021D4901EB0011CA80704701461A4879
:1027500000EB0110C088C0F3C0207047014611484B
:1027600000EB01108068704700BF134901EB0011B6
:10277000C98841F02002104901EB0011CA8000BF56
:10278000704700BF0C4901EB0011498841F010026D
:10279000094901EB00114A8000BF704740210448FD
:1027A0004182704700320440E4010020A4E500208B
:1027B0000030044094E500200031044080E6002011
:1027C00080E200E06021014841827047003004400F
:1027D00070B505460C469A4805609A4804709A48B8
:1027E000FEF718FE70BD70B504460D462A46214618
:1027F0000120FEF7C6FF70BD70B504460D462A469F
:1028000021460120FEF798FF70BD90480078704780
:1028100030B504468CB9022906D102208C4D68706F
:102820004B201060284630BD072909D10720884D6C
:1028300068704B2010602846F5E7022C00D000BFDE
:102840000020F0E730B587B004460D460120032193
:102850000022CDE90102CDE90310402302035021FB
:1028600000900220FEF767FE012002210190CDE9D1
:10287000020104904023020301020090FEF75BFE78
:1028800001200221CDE90101CDE90310402302031B
:1028900081020090FEF7C8FE01206C49087068486C
:1028A0000068006818B1664909680868804764488C
:1028B0000068406928B16248006805A9426906A815
:1028C0009047069820B10220DDE90521FEF759FF67
:1028D000012007B030BD10B50446022000F09CF87E
:1028E000022000F0A1F8002000F0A4F801205949CE
:1028F0000989012282409143564A118100BF00BFDD
:102900000022554901EB0011CA8000BF022000F0EF
:1029100091F8012000F080F8012000F085F80120F6
:1029200000F088F846480068406820B144480068D4
:10293000416820468847002044490870012010BDA6
:1029400070B504460D4616463D480068806858B18B
:102950003B4800683246294683682046984701284C
:1029600000D170BD0020FCE70020FAE77CB50446EA
:102970000D46022C11D132480068406928B1304818
:1029800000686946426901A89047019898B1022001
:10299000DDE90021FEF7F5FE0DE0012C09D1284804
:1029A0000068C06838B126480068C1682846884772
:1029B00001E000207CBD0120FCE770B504460D4617
:1029C0001646012C0AD11E480068006940B11C4817
:1029D0000068314602692846904701E0002070BD3A
:1029E0000120FCE710B5044615480068806920B155
:1029F00013480068816920468847012010BD10B542
:102A000004460F480068C06920B10D480068C169DC
:102A100020468847012010BD0E49C9880122824006
:102A200091430C4AD180704700220B4901EB001101
:102A30004A8070470022094901EB00114A60704743
:102A4000440200204802002024020020200200202E
:102A500049020020003004400031044000320440AC
:102A600070477047704770477047704710B504460D
:102A70004D48844202D1222000F082F84A486C304E
:102A8000844202D1232000F07BF84748D8308442AA
:102A900002D1242000F074F84448844202D1252059
:102AA00000F06EF841486C30844202D1262000F0DC
:102AB00067F83E48D830844202D1272000F060F801
:102AC0003B48844202D1282000F05AF838486C3044
:102AD000844202D1292000F053F83548D83084428E
:102AE00002D12A2000F04CF83248844202D12B2037
:102AF00000F046F810BD10B504462B48844202D1C0
:102B0000222000F048F828486C30844202D123206B
:102B100000F041F825486C38844202D1242000F0AE
:102B20003AF82248844202D1252000F034F81F48A8
:102B30006C30844202D1262000F02DF81C486C38FD
:102B4000844202D1272000F026F81948844202D19D
:102B5000282000F020F816486C30844202D1292049
:102B600000F019F813486C38844202D12A2000F092
:102B700012F81048844202D12B2000F00CF810BD4E
:102B800000F01F02012191404209920002F1E0226F
:102B9000C2F80011704700F01F0201219140064A5F
:102BA000430942F823107047D83F00201C41002001
:102BB00060420020A443002080E100E0F0B503461D
:102BC000C2F38F060C460D46002005E054F820C0E5
:102BD000FE4F47F823C0401CB042F7D302F0030772
:102BE000D01B05E015F800C0F84F07F823C0401CC3
:102BF0009042F7D3F0BD0146002000BFF34AE03217
:102C000002EB0112D288C2F3800282B140F00100CF
:102C100000BFEE4AE03202EB0112D28822F0040338
:102C2000EA4AE03202EB0112D38000BF00BF00BFCE
:102C3000E64AE03202EB0112D288C2F3801282B17E
:102C400040F0020000BFE14AE03202EB0112D288FC
:102C500022F04003DD4AE03202EB0112D38000BFD4
:102C600000BF00BFD94AE03202EB0112D288C2F3A2
:102C7000C0020AB140F00400704770B50546012457
:102C8000002621E06D1005F00100D0B100BFCF4853
:102C9000203800890121A1408843CC49203908818E
:102CA00000BF00F0EDFB012808D12046FFF7A3FF8D
:102CB0000646C7483146026820469047204600F045
:102CC000D6FB0026601CC4B2002DDBD170BD0146CE
:102CD000002000BFBD4AE03202EB01125288C2F36D
:102CE000800282B140F0010000BFB84AE03202EB3E
:102CF0000112528822F00403B44AE03202EB0112BE
:102D0000538000BF00BF00BFB04AE03202EB0112A7
:102D10005288C2F3401282B140F0020000BFAB4AB9
:102D2000E03202EB0112528822F02003A74AE0327F
:102D300002EB0112538000BF00BF704770B505461B
:102D40000124002621E06D1005F00100D0B100BF84
:102D50009E482038C0880121A14088439B492039E2
:102D6000C88000BF00F08CFB012808D12046FFF787
:102D7000AEFF0646964831464268204690472046B8
:102D800000F06CFB0026601CC4B2002DDBD170BDCE
:102D900010B50024002000F05EFB00F071FB01285C
:102DA00044D100BF89482038408AC0F3800040B138
:102DB00044F0020400F070FB854881682046884793
:102DC00034E000BF81482038408AC0F3001070B161
:102DD00000F069FB00F05BFB10B944F0010401E076
:102DE00024F001047A488168204688471EE079482B
:102DF000007838B900F04BFBC0B1754881682046B7
:102E0000884713E073480078012804D170480169AD
:102E1000204688470AE06F480078022806D100F073
:102E200036FB18B16A48C1682046884710BD1FB5F7
:102E300000BF66482038807A039000BF634820387E
:102E40004088029000BF61482038808801909DF83A
:102E50000C0000F0200078B100BF5C4840300078E2
:102E6000C00900909DF80000012805D1042000F061
:102E7000ECFA5749486A804700F002FB012829D143
:102E80009DF80C0000F0020010B15149086A80471B
:102E90009DF80C0000F0010010B14D49C869804751
:102EA0009DF80C0000F00400A0B1002000F0D3FA5F
:102EB000212000F0CAFA00204649087000BF4349AB
:102EC0002039887200BF00F0EEFA00F0E5FA4049C0
:102ED00088698047BDF8080000F0010008B1FFF7DD
:102EE00057FFBDF808004FF6FE71084038B1BDF835
:102EF000080008400290BDF80800FFF71FFFBDF86A
:102F000004004FF6FE71084018B1BDF80400FFF749
:102F1000B4FE1FBD2DE9F8430024A046A14600BF22
:102F20002D480068C7B266E007F0010000285FD0B6
:102F300000BF294800EB0410406820F0010126483A
:102F400000EB0410416000BF00BF234800EB0410F9
:102F5000406800F0F00000909DF80000051100BFEF
:102F600000BF1D4800EB04104068C0F3400600BFDE
:102F700000BF194800EB04104068C0F3002070B196
:102F800048F0400800BF144800EB0410406820F4EB
:102F90008071114800EB0410416000BF28E000BFC1
:102FA0000D4800EB041080688146012E0BD100BF54
:102FB0000648E03000EB05104088C0F3003010B147
:102FC000284600F0B2FA00F05BFA07E02030044037
:102FD000F40100209402002000320440012807D1AF
:102FE000F8484B4642463146D0F828C02846E047CC
:102FF000601CC4B27F10002F96D1BDE8F8832DE984
:10300000F0470446884615461E46DDE90897012D1F
:1030100033D14146304600F0FAFAB9F1020F1AD125
:10302000204600F0BDFA00BFE74800EB0410C0885E
:1030300040F40041E44800EB0410C18000BF20468A
:1030400000F0C4FA3946304600F0E6FAAFB1304637
:1030500000F0D2FA11E000BFDB4800EB0410C0889A
:1030600020F40041D84800EB0410C18000BF204686
:1030700000F0A1FA204600F0B4FABDE8F0872DE98F
:10308000F04704460D4616461F46DDE9089ADDF86E
:10309000288074B36DB3012E19D12946384600F04B
:1030A000B6FAB9F1020F07D1204600F033FA5146C3
:1030B000384600F0B1FA06E0204600F036FA414604
:1030C000384600F0A9FA384600F096FA11E0424678
:1030D00029462046FFF772FD00BFBB4800EB0410F5
:1030E000408840F00101B84800EB0410418000BF67
:1030F00000BFBDE8F0872DE9F04704460D461646AF
:103100001F46DDE9088900BFB04800EB04104068A5
:10311000F02101EA08110843AC4901EB04114860B1
:1031200000BF00BFA94800EB0410406840EA450119
:10313000A64800EB0410416000BF00BFA34800EBAD
:103140000410406840EA8601A04800EB041041608A
:1031500000BF00BF9D4800EB041040684FF4C06101
:1031600001EA47210843994901EB0411486000BF77
:103170004946204600F04BFA00BF944800EB04108B
:10318000406840F00801914800EB0410416000BF26
:10319000BDE8F0872DE9FC4104460126607801284E
:1031A00000D102262078628892FBF6F291B2637811
:1031B0000027002817DD082915D3DFF814C28CF882
:1031C0000E00CA0804E0521007F1010C0CF0FF07D2
:1031D00002F0010CBCF1000FF5D047EA031CDFF848
:1031E000F08188F862C000BF2078A188002805DD42
:1031F000774A9073CA08764B64331A8000BF6078B0
:1032000001280AD12078734909880122824091431C
:103210006F4AA2F8421300BF0DE0607858B92078D9
:103220006C4909880122824092B21143684AA2F88F
:10323000421300BF00BF237D2289217B207800F04C
:1032400039F92078604901EB0011498841F04002CA
:103250005D4901EB00114A8000BFA07901282DD102
:10326000207B022810D12078574901EB00114988B2
:1032700041F48062544901EB00114A8000BF20787C
:1032800000F048F901250FE020784F4901EB0011CB
:10329000498821F480624C4901EB00114A8000BF4B
:1032A000207800F042F900252178A069CDE90010CE
:1032B000E07903232A460121FFF71DFF207800F063
:1032C000CDF8BDE8FC812DE9FC410446012660787B
:1032D000012800D102262078628892FBF6F291B292
:1032E00063780027002817DD082915D3DFF8E0C030
:1032F0008CF80E00CA0804E0521007F1010C0CF023
:10330000FF0702F0010CBCF1000FF5D047EA031CE7
:10331000DFF8BC8088F863C000BF2078A18800284F
:1033200005DD2B4A9073CA08294B66331A8000BF0B
:10333000607801280BD120782649891E098801224E
:1033400082409143224AA2F8401300BF0EE0607809
:1033500060B920781F49891E09880122824092B2F3
:1033600011431B4AA2F8401300BF00BF237D2289EE
:10337000217B207800F0E4F82078134901EB00115C
:10338000C98841F08002104901EB0011CA8000BFDA
:1033900020780D4901EB0011C98821F001020A498A
:1033A00001EB0011CA8000BFA079012825D1207B44
:1033B000022811D1207800F0F3F8207800F006F907
:1033C000012510E0F40100200031044000320440E7
:1033D0000030044042330440207800F0ECF82078BC
:1033E00000F0FFF800252178A069CDE90010E07910
:1033F00003232A460021FFF77EFE207800F037F8ED
:10340000BDE8FC8100B58FB0382286A101A800F08C
:1034100071FC352201A90020FFF7D0FB00BF082076
:103420008E49C87300BF00BF0846408A40F00201C1
:103430008A48418200BF00BFC0884FF6FE71084035
:103440008649C88000BF0FB000BD8449C97A0143D6
:10345000824AD17270478149887370477F49C98811
:103460000122824092B211437C4AD18070477B494D
:1034700009890122824092B21143784A1181704732
:10348000764860300078012121EA90007047734847
:10349000408A00F0010070477048408A20F0040123
:1034A0006E48418270476D48408A40F080016B4809
:1034B0004182704730B50C4600282ADDD51702EB53
:1034C0005575ED10A2EBC5051DBB002B21DD1F2B93
:1034D0001FD80025624901EB00110D80591E8DB2E5
:1034E0005F4901EB00110D805D4901EB0011098876
:1034F0004FF6FF7505EAC125594901EB00110D8012
:10350000574901EB001109881143554D05EB001592
:10351000298030BD524901EB0011498841F48052A5
:103520004F4901EB00114A8070474D4901EB0011F2
:10353000498821F480524A4901EB00114A807047C2
:1035400030B50C4600282ADD002A28DDD51702EB0D
:103550005575ED10A2EBC5050DBB1F2B1FDC00251B
:103560003F4901EB00118D80591E8DB23C4901EBA2
:1035700000118D803A4901EB001189884FF6FF75E3
:1035800005EAC125364901EB00118D80344901EB74
:10359000001189881143324D05EB0015A98030BD1B
:1035A0002F4901EB0011C98841F400622C4901EB5D
:1035B0000011CA8070472A4901EB0011C98821F423
:1035C0000062274901EB0011CA807047244901EBD2
:1035D0000011C98841F40052214901EB0011CA8051
:1035E00070471F4901EB0011C98821F400521C49A2
:1035F00001EB0011CA8070471A4901EB00114968BC
:1036000041F00102174901EB00114A607047154A69
:1036100002EB001291607047124A02EB0012D16077
:1036200070470000000000000000000000AAAAAAE5
:10363000AAAAAAAAAAEEEEEEEEEEEEEEEEFEFFFFCC
:10364000FFFFFFFFFFFFFFFFFF7FBFDFEFF7FBFD88
:10365000FC7EBFDFEFF7FBFD7E0000000030044082
:10366000003104400032044038B504460020F749D8
:10367000087000BF0320F649087000BF00BFF4487F
:10368000007800909DF800000028F8D100BF00BF2E
:10369000EF497F39887200BF142000F03EFA1420F1
:1036A00000F030FA152000F038FA152000F02AFA60
:1036B00000BF0020E6497F39088100BF00BF0846EF
:1036C000C08800F00100C88000BF012C07D100BFF6
:1036D0000846407820F02000487000BF00BF01205D
:1036E000DC49088038BD10B50446002000F01EFA01
:1036F000D748C01F007800F00F002070D448C01FCA
:10370000007800096070D248801F007800F00F0038
:10371000E070CF48801F00780009A070CC48401F9F
:10372000007800092071CA48401F007800F00F009F
:103730006071C7487F3890F87B00A071C4487F381B
:1037400090F87C00E071C2487F3890F87D002072CC
:10375000BF487F3890F87E006072BD487F38C07FD8
:10376000A07210BD10B5044620780022B8498131FE
:1037700001EB00114A8000BF2078B549813101EB8F
:103780000011498821F00402B149813101EB001197
:103790004A8000BF2078AE49813101EB0011498891
:1037A00021F01002AA49813101EB00114A8000BFCB
:1037B0002078A749813101EB0011498821F02002CE
:1037C000A349813101EB00114A8000BF207B012811
:1037D00020D0022808D003282ED1207800F0B2F99A
:1037E000207800F0BAF928E0207800F0ABF9A07951
:1037F00001280ED120789649813101EB00114988CA
:1038000041F400429249813101EB00114A8000BF2E
:1038100000BF12E020788E49813101EB0011498808
:1038200041F480428A49813101EB00114A8000BF96
:10383000207800F092F900E000BF00BF2046FFF7BB
:10384000A9FC10BD10B504462078002280498131C2
:1038500001EB0011CA8000BF20787D49813101EB66
:103860000011C98821F004027949813101EB00116E
:10387000CA8000BF20787649813101EB0011C988E8
:1038800021F040027249813101EB0011CA8000BF72
:1038900020786F49813101EB0011C98821F02002A5
:1038A0006B49813101EB0011CA8000BF207B0128E8
:1038B00022D002280BD0032833D1207800F063F9FE
:1038C000207800F055F9207800F073F92AE020788C
:1038D00000F059F920785E49813101EB0011C98867
:1038E00021F480525A49813101EB0011CA8000BF96
:1038F000207800F053F915E0207800F05AF920788C
:103900005349813101EB0011C98841F4804250498B
:10391000813101EB0011CA8000BF207800F028F946
:1039200000E000BF00BF2046FFF7CDFC10BD10B582
:10393000002000F0FBF800BF002145487F3841829D
:1039400000BF00BFC08840F0010041497F39C880F6
:1039500000BF10BDC17A042903D100213B4A117078
:1039600008E0C17A052902D0C17A072902D10221D3
:10397000364A1170704710B50446A07901286DD100
:10398000E079A169344A02EB0012916000BF207B0C
:10399000022837D120782E49813101EB0011C988E6
:1039A00041F400622A49813101EB0011CA8000BF55
:1039B000207800F0F3F820782549813101EB0011DF
:1039C000C98841F400522249813101EB0011CA80BB
:1039D00000BFE079E169204A02EB0012D16000BF2C
:1039E000207800F0A6F8E06970B3E0791A4901EB9D
:1039F0000011496841F00102174901EB00114A60CA
:103A000000BF2EE0207800F0D4F8207810498131F2
:103A100001EB0011C98821F400620D49813101EBED
:103A20000011CA8000BF20780949813101EB0011E3
:103A3000C98821F400520649813101EB0011CA8086
:103A400000BF207800F075F80BE007E0940200203A
:103A50007F3004404833044000320440207800F0B6
:103A600068F810BD10B50446207800BBA06960B1AD
:103A7000207B50B92078626AA16900F0A5F8606ADD
:103A8000A062D4E9080108442062E07A062802D145
:103A900001206C490870D4E90710884208D200BFA1
:103AA0006948408A40F002016748418200BF09E04E
:103AB000D4E90710884205D300BF0A216248418239
:103AC00000BF00BF10BD38B504460020009000F0D4
:103AD0002DF82078A8B9A06998B100BF5A48008B8A
:103AE00000F07F000090BDF80020A169002000F0E8
:103AF0008AF8BDF80010206A08442062BDF8000072
:103B0000A06238BD00F01F020121914042099200DD
:103B100002F1E022C2F80011704700F01F020121FB
:103B200091404A4A430942F8231070474649887336
:103B30007047454909890122824092B21143424AA5
:103B400011817047424901EB0011498821F48042FC
:103B50003F4901EB00114A8070473D4901EB0011DC
:103B6000498821F400423A4901EB00114A8070472C
:103B7000374901EB0011C98841F48052344901EB07
:103B80000011CA807047324901EB0011C98821F445
:103B900080422F4901EB0011CA8070472C4901EB8C
:103BA0000011C98841F40042294901EB0011CA8083
:103BB0007047274901EB0011C98821F400422449CC
:103BC00001EB0011CA807047F0B50346C2F38F06BF
:103BD0000C460D46002006E054F820C01A4F20374E
:103BE00047F823C0401CB042F6D302F00307D01BB5
:103BF00006E015F800C0144F203707F823C0401C1A
:103C00009042F6D3F0BDF0B50346C2F38F060C46E2
:103C10000D46002006E00C4F203757F8237044F87B
:103C20002070401CB042F6D302F00307D01B05E021
:103C3000054F203717F823702F54401C9042F7D3BC
:103C4000F0BD0000940200200030044080E200E05B
:103C500000310440EFF3108072B6704780F3108893
:103C60007047000001607047006870470EB503FAA6
:103C700001F303EA020301686FEA020201EA0201AA
:103C800041EA030101600EBD006800EA020020FA6B
:103C900001F0704701807047008870470EB503FA45
:103CA00001F303EA020301886FEA020201EA02015A
:103CB00041EA030101800EBD008800EA020020FAFB
:103CC00001F0704701707047007870470EB503FA35
:103CD00001F303EA020301786FEA020201EA02013A
:103CE00041EA030101700EBD007800EA020020FAEB
:103CF00001F0704740EA01039B0703D009E008C9BF
:103D0000121F08C0042AFAD203E011F8013B00F8A0
:103D1000013B521EF9D27047D2B201E000F8012BEC
:103D2000491EFBD270470022F6E710B513460A463B
:103D300004461946FFF7F0FF204610BD421E12F858
:103D4000013F002BFBD111F8013B02F8013B002B96
:103D5000F9D17047CAB2401E10F8011F8A4202D042
:103D60000029F9D100207047421C10F8011B0029DE
:103D7000FBD1801A704710B5002200E0521C835C12
:103D80008C5CA34201D1002BF8D1D8B2E1B2401A29
:103D900010BD10B5044600E0401C0378002BFBD199
:103DA00000E0401C521E04D311F8013B0370002BAD
:103DB000F7D100210170204610BD000070B50F4DF5
:103DC00000B92868002412E00A4602E09E4203D0AF
:103DD000521C1378002BF9D1DAB2224305D02BB153
:103DE00024B1002100F8011B04E00446401C0678C1
:103DF000002EE9D12860204670BD00009802002006
:103E00004FF0000B1D4800681949096801F00301D3
:103E100000F01C00142801D14BF0020B002901D046
:103E20004BF0010BBBF1000F04D03A483A49144A59
:103E300000F02AF839488047394880470BF0020AD9
:103E4000BAF1000F12D00B480B4902680B680FB48F
:103E50004FF000024FF0FF0302600B60BBF1000F58
:103E600004D030483049074A00F00EF82F48004788
:103E700038800340308003403480034018080240FB
:103E80000000000000000000884237D000F0030668
:103E9000002E14D04FF00405A5EB06044FF00807E0
:103EA00007FB06F8914669FA08F9002C07D080F85C
:103EB000009069FA07F900F10100641EF5E74FF080
:103EC00000060F46091A8846091191461446154600
:103ED000B14206D018BFA0E8340206F10106B14293
:103EE000F8D108F00F08B8F1000F07D002704FEAC0
:103EF000322200F10100B8F10108F4E77047FEE753
:103F0000FEE7FEE7FEE7FEE7FEE7FEE7FEE7FEE789
:103F1000FEE7704760E7002060F70020F73F0000F1
:103F2000553F000060E7002060E7002089010000A5
:103F3000064C074D06E0E06840F0010394E80700F6
:103F400098471034AC42F6D3FCF722F9B095000044
:103F5000D09500000CB5094801900198B0F1204FB0
:103F600005D30020064908600861012088600548E3
:103F700000900549009808600CBD0000000000207A
:103F8000008003400000000008ED00E05648006893
:103F900040F4807054499839C1F898000846D0F828
:103FA000980020F08060C1F8980070474E4AB43203
:103FB0001168A1F57842023A1AB1B2F5803F04D1F6
:103FC00001E0012003E0022001E0002000BF00BF6B
:103FD000704710B5FFF7EAFF04464CB1012C02D040
:103FE000022C03D103E0FFF7D1FF02E000BF00BFC6
:103FF00000BF00BF10BD10B5FFF7EBFF3B480068E6
:1040000040F4007039490860AFF3008010BD3849B2
:10401000086038490860384908603849384A1160F2
:1040200038490860384908603849086070472E4AA6
:10403000B832126802F0040109B9304800E034488F
:1040400070472DE9FC412848006800F08064002C8E
:1040500041D12548006800F480558DB92D48244988
:1040600008608010234908602349086024490860DB
:10407000244908608000244908602449086029E038
:1040800025A103C9CDE900011748001D0068C0F350
:1040900082161DF8067037B1012F0BD0022F0ED0FB
:1040A000032F10D110E0FFF7C2FF80464046FFF714
:1040B000AEFF0DE04FF40040FFF7A9FF08E01848FD
:1040C000FFF7A5FF04E000BF1548FFF7A0FF00BF02
:1040D00000BF00BF05E0FFF7AAFF80464046FFF79C
:1040E00096FFBDE8FC8100009880034014ED00E0DD
:1040F0009C020020A0020020A402002040787D0144
:10410000A8020020AC020020B0020020B40200206F
:1041100080F0FA0200E1F50500010001020203034C
:1041200040420F0070B58C1810F8015B15F00703C2
:1041300001D110F8013B2A1106D110F8012B03E040
:1041400010F8016B01F8016B5B1EF9D12B0705D448
:104150000023521E0DD401F8013BFAE710F8013B91
:10416000CB1A921C03E013F8015B01F8015B521EAD
:10417000F9D5A142D8D3002070BD000018484FF0F7
:10418000FF010170002080F309881648016881F35F
:10419000088815484FF08051016062B6FEE772B69C
:1041A000EFF3098028B1203880E8F00F0F49096843
:1041B000086000B50E4880475DF804EB0D480E49D5
:1041C0000A78027009480D490A680260106890E890
:1041D000F00F203080F309884EF0040E62B670476D
:1041E00022ED00E01001002004ED00E0D4010020E9
:1041F000E55D00006201002063010020D80100207D
:104200007047000000B58BB00AA803210022059278
:10421000CDE906210890114680226A48006B694B5F
:10422000CDE90130CDE903211F200023664A67A1B3
:104230000090694801F086FA0AA80321002205923D
:10424000CDE906210890114680226448006B634B3B
:10425000CDE90130CDE9032120200023604A61A18E
:104260000090634801F06EFA0AA80321002205922B
:10427000CDE906210890114680225E48006B5D4B17
:10428000CDE90130CDE90321032000235A4A5BA187
:1042900000905D4801F056FA0AA803210022059219
:1042A0008023CDE9062108905248D0F830025749C2
:1042B000CDE90332CDE9011004201346544A55A13B
:1042C00000905148C43001F03DFA0AA803210022B1
:1042D00005928023CDE9062108904648D0F83004A5
:1042E0004F49CDE90332CDE90110052013464D4A6F
:1042F0004DA100904F4801F025FA0AA803210022A1
:1043000005928023CDE9062108903A48D0F830067E
:104310004949CDE90332CDE9011006201346474A49
:1043200047A100904348C43001F00CFA0AA80321C9
:10433000002205928023CDE9062108902D48D0F86F
:1043400030084249CDE90332CDE901100720134678
:104350003F4A40A10090424801F0F4F90AA8032125
:10436000002205928023CDE9062108902148D0F84B
:10437000300A3C49CDE90332CDE90110082013464B
:10438000394A3AA100903648C43001F0DBF90AA856
:104390000321002205928023CDE9062108901548CB
:1043A000D0F8300C3449CDE90332CDE901100920B1
:1043B0001346324A32A10090344801F0C3F90BB0E1
:1043C00000BD0000885100209144000041707054ED
:1043D00061736B4750494F00C45000204C5400207B
:1043E000A14700004170705461736B555342000047
:1043F00088530020F45D002029450000417070546E
:1044000061736B49324330004C560020F45F00204A
:104410002F4500004170705461736B493243310085
:10442000F4610020354500004170705461736B49A0
:1044300032433200D4570020F46300203B45000093
:104440004170705461736B4932433300F46500204E
:10445000414500004170705461736B493243340030
:104460005C590020F46700204745000041707054FB
:1044700061736B4932433500F46900204D450000FB
:104480004170705461736B4932433600E45A002026
:104490000EB50020009037E002AB01AA00210846CB
:1044A00001F096FA19A11C48FFF748FC1B4804F0DC
:1044B00061FC04461948007810280ED11748D0F83E
:1044C00001000090009820F000411548FBF7E4FE41
:1044D00014491148FFF732FC12E010480078112807
:1044E0000ED10F48FBF751FF00900C4A042168469B
:1044F00000F04CFB0446224608490748FFF749FCF8
:1045000020210648FFF70FFCC6E700005B5D2C4743
:1045100050494F2C302C0000B82A0020B83F002012
:104520008400002047000020002000F063FC0120F0
:1045300000F060FC022000F05DFC032000F05AFC5B
:10454000042000F057FC052000F054FC062000F089
:1045500051FC00000EB500208349C86600F0B4FA93
:1045600000F0E4FA00F08EFD00F07CFA7F48FCF7E2
:1045700085FD7F490320FCF79DFD7E490420FCF763
:1045800099FD7D490520FCF795FD7C490620FCF747
:1045900091FD7B490720FCF78DFD7A490820FCF747
:1045A00089FD79490920FCF785FD78490A20FCF747
:1045B00081FD77490B20FCF77DFD76490C20FCF747
:1045C00079FD0320FCF784FD0420FCF781FD052024
:1045D000FCF77EFD0620FCF77BFD0720FCF778FD4D
:1045E0000820FCF775FD0920FCF772FD0A20FCF796
:1045F0006FFD0B20FCF76CFD0C20FCF769FD02221F
:1046000065496648FBF7E4FD052200216348FBF796
:1046100032FE052201216148FBF72DFE0522022111
:104620005E48FBF728FE052203215C48FBF723FECA
:10463000022204215948FBF71EFE02220521574899
:10464000FBF719FE022206215448FBF714FE022252
:1046500007215248FBF70FFE022208214F48FBF7C3
:104660000AFE022209214D48FBF705FE02220A211B
:104670004A48FBF700FE02220B214848FBF7FBFDEE
:1046800002220C214548FBF7F6FD02220D2143488A
:10469000FBF7F1FD02220E214048FBF7ECFD022260
:1046A0000F213E48FBF7E7FD022210213B48FBF7B4
:1046B000E2FD022211213948FBF7DDFD0222122121
:1046C0003648FBF7D8FD022213213448FBF7D3FD0F
:1046D000022214213148FBF7CEFD022215212F487A
:1046E000FBF7C9FD022216212C48FBF7C4FD02226C
:1046F00017212A48FBF7BFFD022218212748FBF7A4
:10470000BAFD022219212548FBF7B5FD02221A2124
:104710002248FBF7B0FD02221B212048FBF7ABFD2E
:1047200002221C211D48FBF7A6FD02221D211B4869
:10473000FBF7A1FD02221E211848FBF79CFD052274
:104740001F211648FBF797FDFFF75AFDFFF75AFDAB
:1047500008E002A800210B460222CDE9001008461D
:1047600001F010FCF5E700000080034000E000319C
:10477000AD8E0000E18E0000E38E0000E58E0000AB
:10478000E78E0000E98E0000EB8E0000ED8E000049
:10479000EF8E0000F18E00000070003084000020D9
:1047A000A6B0802106A8FFF7BEFA63A000680590B6
:1047B0000D2004900823002211464FF4165004F0F7
:1047C000B7FB5E4A4FF400615D4804F041FC0022F3
:1047D0001F215C48FBF717FEACE004F0A1FB0228A8
:1047E00079D15948008800285FD000BF00BFFBF78F
:1047F000D9FC064600BF00BF5348028853495448BD
:10480000FFF778FA504800885249088000204E4946
:10481000088000BF00BF3046FBF7C8FC00BF00BFE8
:10482000002405A94A48FFF7C9FA06A941F824005F
:1048300008E0601CC4B205A90020FFF7BFFA06A972
:1048400041F8240006A850F824000028F1D10025E2
:1048500000BF20E0601EA84216D106A951F825002D
:104860009DF81010FFF776FA074604A9FFF783FAC0
:1048700020B139493948FFF761FA0AE006A951F831
:10488000250004F095FA04E006A951F8250004F08B
:104890008FFA681CC5B2A542DCDB4FF480512C486E
:1048A000FFF741FA00202B49088004F011FC012891
:1048B00037D12A48FFF758FAF8B10A212748FFF7FD
:1048C00049FAD0B12548FFF74FFA07463946234841
:1048D00004F0DCFB09E011E003A800210A230A46EA
:1048E000CDE90010084601F04DFB04F0F1FB012872
:1048F000F2D101031948FFF716FA12E008E003A805
:1049000000210A230A46CDE90010084601F03AFBCF
:1049100004F006FB0228F2D1084A8102084804F09C
:1049200097FB03A800210A230A46CDE90010084698
:1049300001F028FB51E700000A0000003992000056
:10494000B80200208400002082000020B80A002065
:10495000B81A0020800000205D000020B82A002046
:104960007047000010B5002400BF00BFFBF71AFC21
:10497000044600BF00BF0E480E4908600E480F49AC
:1049800008600F480F4908600F4810490860104838
:104990001049086010481149086011481149086021
:1049A00000BF00BF2046FBF701FC00BF00BF10BDE9
:1049B000EB4900001C010020ED490000200100200F
:1049C000EF49000024010020614900002801002077
:1049D000E94900002C010020F149000030010020CD
:1049E000F549000034010020704770477047704758
:1049F0007047000010B501211648FBF784FF012124
:104A000014486C30FBF77FFF01211248D830FBF7C8
:104A10007AFF01211048FBF776FF01210E486C3028
:104A2000FBF771FF01210C48D830FBF76CFF012127
:104A30000A48FBF768FF012108486C30FBF763FF69
:104A400001210648D830FBF75EFF01210448FBF73F
:104A50005AFF10BDD83F00201C41002060420020BA
:104A6000A443002070B5144800681449B1FBF0F36A
:104A70001946481EB0F1807F00D31BE0481E4FF05E
:104A8000E022506150170F22002807DA1407260E83
:104A90000B4C00F00F052D1F665503E01407250E83
:104AA000084C255400BF00204FF0E0229061072001
:104AB000106100BF70BD00000094000000E1F5052A
:104AC00018ED00E000E400E010B50020FDF7CBFF9A
:104AD0000120FDF7C8FF0220FDF7C5FF0320FDF709
:104AE000C2FF0420FDF7BFFF0520FDF7BCFF062035
:104AF000FDF7B9FF0720FDF7B6FF0820FDF7B3FF6C
:104B00000920FDF7B0FF0A20FDF7ADFF0B20FDF7F0
:104B1000AAFF0C20FDF7A7FF0D20FDF7A4FF0E2034
:104B2000FDF7A1FF0F20FDF79EFF10BD10B500F0AF
:104B30001FF800F019F810BD10B5002400BF00BF29
:104B4000FBF730FB044600BF00BF1021054800F012
:104B50008FFA00BF00BF2046FBF728FB00BF00BF55
:104B600010BD0000C4CA002010B5FFF7E5FF10BD5E
:104B700010B500200249086000F004F810BD0000E4
:104B80000C010020704700207047000070B50346FC
:104B90000C460020002127E05D5C154E06EB151544
:104BA0002D7802F8015B5D5C05F00F05755D02F87C
:104BB000015B851CE8B2651E8D420ED12C2502F8E2
:104BC000015B0D2502F8015B0A2502F8015B002557
:104BD00002F8015B051DE8B204E0202502F8015B44
:104BE000451CE8B24D1CE9B2A142D5DB70BD000006
:104BF0009093000070B504460D460A2C14DA082D77
:104C000012DA04F12003DAB24FF0405303EB04311F
:104C100004EBC40303EB4303044E06EB83002B4673
:104C2000FBF7F7FC002070BD0120FCE7D83F002017
:104C30002DE9FF470446884691461D46DDE90C678D
:104C400075B9002004EBC40101EB41011F4A00903B
:104C500002EB81003B4632464146FBF7A2FD0FE0E6
:104C6000002004EBC40101EB4101184ACDE90067C3
:104C7000029002EB81002B464A464146FBF7D7FDE6
:104C800008E003A800210A230A46CDE900100846DF
:104C900001F078F904EBC40101EB41010B4A02EB8E
:104CA0008100FBF719FE0128EBD004EBC40101EBF6
:104CB0004101064A02EB8100FBF70EFE18B9002005
:104CC00004B0BDE8F0870320FAE70000D83F0020D9
:104CD000FEB504460D4616461F46002004EBC401EF
:104CE00001EB4101154A009002EB81003B46324640
:104CF0002946FBF711FD08E002A800210A230A4615
:104D0000CDE90010084601F03DF904EBC40101EBC8
:104D100041010A4A02EB8100FBF7DEFD0128EBD0DE
:104D200004EBC40101EB4101044A02EB8100FBF7F3
:104D3000D3FD08B90020FEBD0320FCE7D83F0020CA
:104D400010B50248FBF78FFE10BD0000D83F0020D1
:104D50007047704770477047704710B5FCF7D6F939
:104D600010BD000010B50248FBF77DFE10BD00002D
:104D70004440002010B50248FBF775FE10BD00004E
:104D8000B040002010B50248FBF76DFE10BD0000DA
:104D90001C41002010B50248FBF765FE10BD000065
:104DA0008841002010B50248FBF75DFE10BD0000F1
:104DB000F441002010B50248FBF755FE10BD00007D
:104DC0006042002010B50248FBF74DFE10BD000008
:104DD000CC42002010B50248FBF745FE10BD000094
:104DE0003843002010B50248FBF73DFE10BD00001F
:104DF000A443002094B004460025402102A8FEF7F9
:104E000092FF04F12003DAB24FF0405303EB043178
:104E100004EBC40303EB4303714F07EB8300002350
:104E2000FBF7F7FBDBE013AB12AA0021084600F00A
:104E3000CFFDBDF84C000028F4D10A2C38D2DFE8B1
:104E400004F0050A0F14191E23282D3265A16848A5
:104E5000FEF774FF2DE067A16548FEF76FFF28E0BD
:104E600067A16348FEF76AFF23E068A16048FEF788
:104E700065FF1EE068A15E48FEF760FF19E069A1CA
:104E80005B48FEF75BFF14E069A15948FEF756FF47
:104E90000FE06AA15648FEF751FF0AE06AA15448A4
:104EA000FEF74CFF05E06BA15148FEF747FF00E01D
:104EB00000BF00BF6A4901EBC41003F05BFF064668
:104EC000674800EBC4100078032823D1644800EB46
:104ED000C410407801281DD1614800EBC4108078CF
:104EE000C0B95F4800EBC410C078072812DC5C48EA
:104EF00000EBC410C1782046FFF77CFE054625B9BB
:104F000058493B48FEF71AFF63E057493848FEF717
:104F100015FF5EE0524800EBC410007810281FD146
:104F20004F4800EBC4108078D0B94D4800EBC41056
:104F300043784B4800EBC410021D494800EBC410F5
:104F4000C1782046FFF7C4FE054625B945492848E3
:104F5000FEF7F4FE3DE044492548FEF7EFFE38E059
:104F60003F4800EBC410007811282ED13C4800EBDC
:104F7000C410807802A9CDE90010394800EBC410B4
:104F80004378374800EBC410021D354800EBC410CD
:104F9000C1782046FFF74CFE05468DB9304800EB3E
:104FA000C41200EBC410817802A8FFF7EFFD06469B
:104FB0002B4800EBC41132460D48FEF7EAFE08E02C
:104FC00029490B48FEF7BAFE03E028490848FEF7D6
:104FD000B5FE234901EBC4108021FEF7A4FE22E7B1
:104FE000D83F00205B5D2C4932432C302C00000060
:104FF000B82A00205B5D2C4932432C312C00000084
:105000005B5D2C4932432C322C0000005B5D2C4947
:1050100032432C332C0000005B5D2C4932432C348E
:105020002C0000005B5D2C4932432C352C00000025
:105030005B5D2C4932432C362C0000005B5D2C4913
:1050400032432C372C0000005B5D2C4932432C3856
:105050002C0000005B5D2C4932432C392C000000F1
:10506000B83A0020470000202E0000201600002043
:1050700030B505460C4622460021284600F026F8A9
:1050800030BD00000D480E4901600146416000211D
:105090008160C160016141618161C161016201633F
:1050A000C162416207498163C1634FF410510164D9
:1050B00041640146044A1160704700007CA600204C
:1050C00048454150C4A60020080100202DE9F041C8
:1050D00003460C4617460FB9BDE8F08103B9FBE75C
:1050E0000025002202E02D022543521C042AFAD397
:1050F000384603F0030C1946BCF1000F08D0624695
:1051000003E001F8014B401E521C08B1042AF8D3F9
:105110000E4601E020C6001F0428FBD2314602E003
:1051200001F8014B401E0028FAD100BFD4E77047B8
:1051300010B50348006810B101480068804710BDF1
:105140002801002070B5044600F0BCF80020454955
:105150000870454908704549087045490860454947
:105160000860454908704549087045490870454937
:105170000860454908604549086045490870454848
:1051800000680A21B0FBF1F0434908604348006819
:1051900058B14348056845B14048066803E0761EAB
:1051A000002028602D1D002EF9D100203D49086007
:1051B0003D4908603D4908603D4908603D49086037
:1051C0003D4908603D4908603D49087001F008FF0D
:1051D00001F0E8FF204601F0EBF8208800B170BD37
:1051E000204601F0ABFC208800B1F8E7204601F032
:1051F0006DFD208800B1F2E7204601F021FF2088F4
:1052000000B1ECE7204602F045F9208800B1E6E75E
:10521000204602F045FC208800B1E0E7204601F07E
:10522000F9FB208800B1DAE7204601F011FA208866
:1052300000B1D4E7204603F0ABFB208800B1CEE7F5
:10524000204602F093FB208800B1C8E7204603F017
:10525000FBFB208800B1C2E700F0D4FFFFF767FF37
:1052600000BFBCE73C0100203D0100207C01002084
:10527000D4010020D8010020620100206301002039
:1052800064010020700100207401002078010020DA
:10529000840100200094000080010020D0930000D1
:1052A000CC9300001C0100202001002024010020DC
:1052B000280100202C0100203001002034010020B2
:1052C000B20100200A4A1168002002E0002204C155
:1052D000401C084A12689042F8D3054A1268054BF0
:1052E0001B6802EB8302121F034B1A607047000019
:1052F000CC930000D09300001001002010B50024D2
:105300002E480078012800D010BD00BFFAF74AFFF0
:10531000044600BF2A48007828B900BF2046FAF7A3
:1053200045FF00BFF0E726480078401E244908707A
:1053300008460078002805DD00BF2046FAF736FF52
:1053400000BFE1E71F480078002805DD00BF2046C8
:10535000FAF72CFF00BFD7E701F02EFE1A490870BC
:105360000846007800EB4000184951F82000184921
:1053700008600846006817490968884205D100BFDF
:105380002046FAF713FF00BFBEE711480068D0F8C7
:105390009000401C0E490968C1F890000E48006852
:1053A000401C0D4908604FF080500C49086000BF58
:1053B0002046FAF7FBFE00BF00BFA5E73D01002035
:1053C0003C0100207C01002063010020C8DF002098
:1053D000D8010020D4010020A801002004ED00E045
:1053E00010B5002420480078002800DD10BD1F48BB
:1053F0000078002800DDF9E700BFFAF7D3FE044685
:1054000000BF01F0D9FD1A4908700846007800EB8A
:105410004000184951F82000174908600846006804
:1054200016490968884205D100BF2046FAF7BEFE3A
:1054300000BFDBE710480068D0F89000401C0E4920
:105440000968C1F890000E480068401C0C490860CB
:105450004FF080500B49086000BF2046FAF7A6FEC7
:1054600000BF00BFC2E700003C0100207C0100201B
:1054700063010020C8DF0020D8010020D4010020F3
:10548000A801002004ED00E070B50446002518488E
:105490000078002803DD46F66250208070BD154874
:1054A0000078012803D045F689602080F6E712488D
:1054B0000078FA2803DB45F209202080EEE700BFE0
:1054C00000BFFAF76FFE054600BF00BF0A4800782C
:1054D000401C0949087001F049FF00BF00BF284681
:1054E000FAF764FE00BF00BF0020208000BFD5E7B0
:1054F0003C0100203D0100207C01002070B50446E5
:10550000002520480078002803DD46F665502080FD
:1055100070BD1D480078012803D045F689602080C1
:10552000F6E71A48007818B946F664502080EFE78D
:1055300000BF00BFFAF736FE054600BF00BF1348A4
:105540000078401E114908700846007800280ADDDE
:1055500000BF00BF2846FAF729FE00BF00BF46F68D
:1055600063502080D4E701F00FFF00BF00BF284642
:10557000FAF71CFE00BF00BFFFF732FF00202080BB
:1055800000BFC5E73C0100203D0100207C01002058
:1055900010B5044612480078E8B901F00DFD114934
:1055A000087008460078104908700E48007800EB33
:1055B00040000E4951F820000D4908600846006877
:1055C0000C490860012006490870FEF7D7FD43F634
:1055D0009920208002E045F68A60208010BD0000FE
:1055E0003D0100206301002062010020C8DF00208F
:1055F000D8010020D40100202DE9F04107464FF0EA
:10560000000800BF00BFFAF7CDFD804600BF00BF15
:1056100000203D4908603D4908803D4908803D49DA
:1056200008603D4908603D4908603D4908603D49C2
:10563000088100BF00BF4046FAF7B8FD00BF00BFB9
:1056400000BF00BFFAF7AEFD804600BF00BF36487E
:10565000046800BF00BF4046FAF7A8FD00BF00BFC6
:1056600021E000BF00BFFAF79DFD804600BF00BFEC
:1056700000207834E06320602063A061A082E08293
:105680006062A062FFF77FFA2062783C04F1640652
:105690000020B081D4F8BC4000BF00BF4046FAF7FC
:1056A00085FD00BF00BF002CDBD100BF00BFFAF7B3
:1056B00079FD804600BF00BF1C48056800BF00BFE1
:1056C0004046FAF773FD00BF00BF12E000BF00BF05
:1056D000FAF768FD804600BF00BF05F120060020F4
:1056E000B081AD6900BF00BF4046FAF75FFD00BF63
:1056F00000BF002DEAD103F027F803F0A1FA002043
:105700003880BDE8F0810000500100204A010020EF
:1057100092010020A4010020B8010020C401002053
:1057200074010020BCDF0020AC01002068010020D3
:1057300010B50348006810B101480068804710BDEB
:105740002C0100202DE9FF4F87B004469046DDE98B
:105750001BA5DDE91496179F002003908748007869
:10576000002805DD47F24A1028800BB0BDE8F08F15
:105770001CB947F2AD102880F7E7B8F1000F03D14C
:1057800047F24F102880F0E71EB946F62F602880B8
:10579000EBE77B480068874203D246F630602880FA
:1057A000E3E71698B84203D346F631602880DCE779
:1057B000B9F1400F03D346F273202880D5E7B9F141
:1057C000000F06D16F48844203D046F27320288030
:1057D000CBE7B9F13F0F06D16B48844203D046F2C4
:1057E00073202880C1E7204602F06AF90020288053
:1057F0000AF0010090B10AF0020078B1059600208D
:10580000069008E00021059801600598001D0590AC
:105810000698401C06900698B842F3D3169806EBFB
:1058200080000490CDE9007A32464046049B0A99F4
:1058300000F078FA0590C4F828800A98E062089889
:10584000206284F83790059820600498A060199829
:105850006065199818B94D480068A06501E019986D
:10586000A0651A9860606662A763A4F83CA04FF038
:10587000000B08E0002104F17C0040F82B100BF134
:10588000010000F0FF0BBBF1000FF3D004F1640046
:10589000189901F091F9204600F082F800BF00BF8E
:1058A00000BFFAF77FFC039000BF00BF38480078C4
:1058B000401C3749087000BF00BF0398FAF776FC18
:1058C00000BF00BF00BF94F8370001F095FB2046F1
:1058D00001F0B0FC204602F0CBF82E480088401CB6
:1058E0002C4908802C48007801282DD000BF00BF2B
:1058F00000BFFAF757FC039000BF00BF24480078B0
:10590000401E2349087008460078A0B92348008843
:10591000002809DD00BF00BF0398FAF747FC00BF6D
:1059200000BF01F0F5FC0DE000BF00BF0398FAF7DF
:105930003DFC00BF06E000BF00BF0398FAF736FC4D
:1059400000BF00BF00BF10E700BF00BF00BFFAF7F5
:1059500029FC039000BF00BF0D480078401E0C4991
:10596000087000BF00BF0398FAF720FC00BF00BF1B
:1059700000BFFFF735FD00BFF7E600003C01002047
:10598000FC930000F8DE002034DE002080010020BF
:105990007C010020B00100203D01002048010020D2
:1059A00010B504460348006818B12046014909684B
:1059B000884710BD1C01002010B50446034800684C
:1059C00018B1204601490968884710BD240100200C
:1059D0002DE9F04780460E4614461D464FF000095B
:1059E0007D480078002805DD46F2AE1028800020B2
:1059F000BDE8F0871EB1B6F5004F02D100E000BF50
:105A000004E045F6256028800020F1E700BF0CB1D6
:105A10000020206000BF00BFFAF7C4FB814600BF32
:105A200000BF6E480068406CA8B36C480068406CCA
:105A3000401E6A490968486468480068476C1CB1A0
:105A400066480068006C2060FFF79DF863490968AC
:105A5000096C401A61490968C1F8A4005F480068F0
:105A6000D0F8A8005D490968D1F8A410884207D28F
:105A70005A480068D0F8A40058490968C1F8A8003D
:105A800000BF00BF4846FAF791FB00BF00BF0020EF
:105A900028803846ACE7FFE706F4004058B100BF65
:105AA00000BF4846FAF782FB00BF00BF46F2B010C5
:105AB000288000209CE74A48007800280BDD00BFC2
:105AC00000BF4846FAF772FB00BF00BF46F66350BE
:105AD000288000208CE700BF41480078401C4049E6
